{
	"contracts_src/contracts/purchase.sol": {
		"Purchase": {
			"abi": [
				{
					"inputs": [],
					"stateMutability": "payable",
					"type": "constructor"
				},
				{
					"anonymous": false,
					"inputs": [],
					"name": "Aborted",
					"type": "event"
				},
				{
					"anonymous": false,
					"inputs": [],
					"name": "ItemRecived",
					"type": "event"
				},
				{
					"anonymous": false,
					"inputs": [],
					"name": "PurchaseConfirmed",
					"type": "event"
				},
				{
					"anonymous": false,
					"inputs": [],
					"name": "SellerRefunded",
					"type": "event"
				},
				{
					"inputs": [],
					"name": "_getBalance",
					"outputs": [
						{
							"internalType": "uint256",
							"name": "",
							"type": "uint256"
						}
					],
					"stateMutability": "view",
					"type": "function"
				},
				{
					"inputs": [],
					"name": "abort",
					"outputs": [],
					"stateMutability": "nonpayable",
					"type": "function"
				},
				{
					"inputs": [],
					"name": "confirmRecived",
					"outputs": [],
					"stateMutability": "nonpayable",
					"type": "function"
				},
				{
					"inputs": [],
					"name": "confirnPurchase",
					"outputs": [],
					"stateMutability": "payable",
					"type": "function"
				},
				{
					"inputs": [],
					"name": "currentState",
					"outputs": [
						{
							"internalType": "enum Purchase.states",
							"name": "",
							"type": "uint8"
						}
					],
					"stateMutability": "view",
					"type": "function"
				},
				{
					"inputs": [],
					"name": "refundSeller",
					"outputs": [],
					"stateMutability": "nonpayable",
					"type": "function"
				},
				{
					"inputs": [],
					"name": "value",
					"outputs": [
						{
							"internalType": "uint256",
							"name": "",
							"type": "uint256"
						}
					],
					"stateMutability": "view",
					"type": "function"
				}
			],
			"devdoc": {
				"kind": "dev",
				"methods": {},
				"version": 1
			},
			"evm": {
				"assembly": "    /* \"contracts_src/contracts/purchase.sol\":69:2136  contract Purchase {... */\n  mstore(0x40, 0x80)\n    /* \"contracts_src/contracts/purchase.sol\":1067:1081  states.Created */\n  0x00\n    /* \"contracts_src/contracts/purchase.sol\":1052:1064  currentState */\n  0x02\n  0x14\n    /* \"contracts_src/contracts/purchase.sol\":1052:1081  currentState = states.Created */\n  0x0100\n  exp\n  dup2\n  sload\n  dup2\n  0xff\n  mul\n  not\n  and\n  swap1\n  dup4\n  0x03\n  dup2\n  gt\n  iszero\n  tag_3\n  jumpi\n  tag_4\n  tag_5\n  jump\t// in\ntag_4:\ntag_3:\n  mul\n  or\n  swap1\n  sstore\n  pop\n    /* \"contracts_src/contracts/purchase.sol\":1108:1118  msg.sender */\n  caller\n    /* \"contracts_src/contracts/purchase.sol\":1091:1097  seller */\n  0x01\n  0x00\n    /* \"contracts_src/contracts/purchase.sol\":1091:1119  seller = payable(msg.sender) */\n  0x0100\n  exp\n  dup2\n  sload\n  dup2\n  0xffffffffffffffffffffffffffffffffffffffff\n  mul\n  not\n  and\n  swap1\n  dup4\n  0xffffffffffffffffffffffffffffffffffffffff\n  and\n  mul\n  or\n  swap1\n  sstore\n  pop\n    /* \"contracts_src/contracts/purchase.sol\":1147:1148  2 */\n  0x02\n    /* \"contracts_src/contracts/purchase.sol\":1137:1146  msg.value */\n  callvalue\n    /* \"contracts_src/contracts/purchase.sol\":1137:1148  msg.value/2 */\n  tag_6\n  swap2\n  swap1\n  tag_7\n  jump\t// in\ntag_6:\n    /* \"contracts_src/contracts/purchase.sol\":1129:1134  value */\n  0x00\n    /* \"contracts_src/contracts/purchase.sol\":1129:1148  value = msg.value/2 */\n  dup2\n  swap1\n  sstore\n  pop\n    /* \"contracts_src/contracts/purchase.sol\":1171:1180  msg.value */\n  callvalue\n    /* \"contracts_src/contracts/purchase.sol\":1163:1168  value */\n  sload(0x00)\n    /* \"contracts_src/contracts/purchase.sol\":1161:1162  2 */\n  0x02\n    /* \"contracts_src/contracts/purchase.sol\":1161:1168  2*value */\n  tag_8\n  swap2\n  swap1\n  tag_9\n  jump\t// in\ntag_8:\n    /* \"contracts_src/contracts/purchase.sol\":1161:1180  2*value !=msg.value */\n  eq\n    /* \"contracts_src/contracts/purchase.sol\":1158:1221  if(2*value !=msg.value)... */\n  tag_10\n  jumpi\n    /* \"contracts_src/contracts/purchase.sol\":1190:1221  revert (\"value is not even!! \") */\n  mload(0x40)\n  0x08c379a000000000000000000000000000000000000000000000000000000000\n  dup2\n  mstore\n  0x04\n  add\n  tag_11\n  swap1\n  tag_12\n  jump\t// in\ntag_11:\n  mload(0x40)\n  dup1\n  swap2\n  sub\n  swap1\n  revert\n    /* \"contracts_src/contracts/purchase.sol\":1158:1221  if(2*value !=msg.value)... */\ntag_10:\n    /* \"contracts_src/contracts/purchase.sol\":69:2136  contract Purchase {... */\n  jump(tag_13)\n    /* \"#utility.yul\":7:373   */\ntag_15:\n    /* \"#utility.yul\":149:152   */\n  0x00\n    /* \"#utility.yul\":170:237   */\n  tag_17\n    /* \"#utility.yul\":234:236   */\n  0x14\n    /* \"#utility.yul\":229:232   */\n  dup4\n    /* \"#utility.yul\":170:237   */\n  tag_18\n  jump\t// in\ntag_17:\n    /* \"#utility.yul\":163:237   */\n  swap2\n  pop\n    /* \"#utility.yul\":246:339   */\n  tag_19\n    /* \"#utility.yul\":335:338   */\n  dup3\n    /* \"#utility.yul\":246:339   */\n  tag_20\n  jump\t// in\ntag_19:\n    /* \"#utility.yul\":364:366   */\n  0x20\n    /* \"#utility.yul\":359:362   */\n  dup3\n    /* \"#utility.yul\":355:367   */\n  add\n    /* \"#utility.yul\":348:367   */\n  swap1\n  pop\n    /* \"#utility.yul\":7:373   */\n  swap2\n  swap1\n  pop\n  jump\t// out\n    /* \"#utility.yul\":379:798   */\ntag_12:\n    /* \"#utility.yul\":545:549   */\n  0x00\n    /* \"#utility.yul\":583:585   */\n  0x20\n    /* \"#utility.yul\":572:581   */\n  dup3\n    /* \"#utility.yul\":568:586   */\n  add\n    /* \"#utility.yul\":560:586   */\n  swap1\n  pop\n    /* \"#utility.yul\":632:641   */\n  dup2\n    /* \"#utility.yul\":626:630   */\n  dup2\n    /* \"#utility.yul\":622:642   */\n  sub\n    /* \"#utility.yul\":618:619   */\n  0x00\n    /* \"#utility.yul\":607:616   */\n  dup4\n    /* \"#utility.yul\":603:620   */\n  add\n    /* \"#utility.yul\":596:643   */\n  mstore\n    /* \"#utility.yul\":660:791   */\n  tag_22\n    /* \"#utility.yul\":786:790   */\n  dup2\n    /* \"#utility.yul\":660:791   */\n  tag_15\n  jump\t// in\ntag_22:\n    /* \"#utility.yul\":652:791   */\n  swap1\n  pop\n    /* \"#utility.yul\":379:798   */\n  swap2\n  swap1\n  pop\n  jump\t// out\n    /* \"#utility.yul\":804:973   */\ntag_18:\n    /* \"#utility.yul\":888:899   */\n  0x00\n    /* \"#utility.yul\":922:928   */\n  dup3\n    /* \"#utility.yul\":917:920   */\n  dup3\n    /* \"#utility.yul\":910:929   */\n  mstore\n    /* \"#utility.yul\":962:966   */\n  0x20\n    /* \"#utility.yul\":957:960   */\n  dup3\n    /* \"#utility.yul\":953:967   */\n  add\n    /* \"#utility.yul\":938:967   */\n  swap1\n  pop\n    /* \"#utility.yul\":804:973   */\n  swap3\n  swap2\n  pop\n  pop\n  jump\t// out\n    /* \"#utility.yul\":979:1164   */\ntag_7:\n    /* \"#utility.yul\":1019:1020   */\n  0x00\n    /* \"#utility.yul\":1036:1056   */\n  tag_25\n    /* \"#utility.yul\":1054:1055   */\n  dup3\n    /* \"#utility.yul\":1036:1056   */\n  tag_26\n  jump\t// in\ntag_25:\n    /* \"#utility.yul\":1031:1056   */\n  swap2\n  pop\n    /* \"#utility.yul\":1070:1090   */\n  tag_27\n    /* \"#utility.yul\":1088:1089   */\n  dup4\n    /* \"#utility.yul\":1070:1090   */\n  tag_26\n  jump\t// in\ntag_27:\n    /* \"#utility.yul\":1065:1090   */\n  swap3\n  pop\n    /* \"#utility.yul\":1109:1110   */\n  dup3\n    /* \"#utility.yul\":1099:1134   */\n  tag_28\n  jumpi\n    /* \"#utility.yul\":1114:1132   */\n  tag_29\n  tag_30\n  jump\t// in\ntag_29:\n    /* \"#utility.yul\":1099:1134   */\ntag_28:\n    /* \"#utility.yul\":1156:1157   */\n  dup3\n    /* \"#utility.yul\":1153:1154   */\n  dup3\n    /* \"#utility.yul\":1149:1158   */\n  div\n    /* \"#utility.yul\":1144:1158   */\n  swap1\n  pop\n    /* \"#utility.yul\":979:1164   */\n  swap3\n  swap2\n  pop\n  pop\n  jump\t// out\n    /* \"#utility.yul\":1170:1518   */\ntag_9:\n    /* \"#utility.yul\":1210:1217   */\n  0x00\n    /* \"#utility.yul\":1233:1253   */\n  tag_32\n    /* \"#utility.yul\":1251:1252   */\n  dup3\n    /* \"#utility.yul\":1233:1253   */\n  tag_26\n  jump\t// in\ntag_32:\n    /* \"#utility.yul\":1228:1253   */\n  swap2\n  pop\n    /* \"#utility.yul\":1267:1287   */\n  tag_33\n    /* \"#utility.yul\":1285:1286   */\n  dup4\n    /* \"#utility.yul\":1267:1287   */\n  tag_26\n  jump\t// in\ntag_33:\n    /* \"#utility.yul\":1262:1287   */\n  swap3\n  pop\n    /* \"#utility.yul\":1455:1456   */\n  dup2\n    /* \"#utility.yul\":1387:1453   */\n  0xffffffffffffffffffffffffffffffffffffffffffffffffffffffffffffffff\n    /* \"#utility.yul\":1383:1457   */\n  div\n    /* \"#utility.yul\":1380:1381   */\n  dup4\n    /* \"#utility.yul\":1377:1458   */\n  gt\n    /* \"#utility.yul\":1372:1373   */\n  dup3\n    /* \"#utility.yul\":1365:1374   */\n  iszero\n    /* \"#utility.yul\":1358:1375   */\n  iszero\n    /* \"#utility.yul\":1354:1459   */\n  and\n    /* \"#utility.yul\":1351:1482   */\n  iszero\n  tag_34\n  jumpi\n    /* \"#utility.yul\":1462:1480   */\n  tag_35\n  tag_36\n  jump\t// in\ntag_35:\n    /* \"#utility.yul\":1351:1482   */\ntag_34:\n    /* \"#utility.yul\":1510:1511   */\n  dup3\n    /* \"#utility.yul\":1507:1508   */\n  dup3\n    /* \"#utility.yul\":1503:1512   */\n  mul\n    /* \"#utility.yul\":1492:1512   */\n  swap1\n  pop\n    /* \"#utility.yul\":1170:1518   */\n  swap3\n  swap2\n  pop\n  pop\n  jump\t// out\n    /* \"#utility.yul\":1524:1601   */\ntag_26:\n    /* \"#utility.yul\":1561:1568   */\n  0x00\n    /* \"#utility.yul\":1590:1595   */\n  dup2\n    /* \"#utility.yul\":1579:1595   */\n  swap1\n  pop\n    /* \"#utility.yul\":1524:1601   */\n  swap2\n  swap1\n  pop\n  jump\t// out\n    /* \"#utility.yul\":1607:1787   */\ntag_36:\n    /* \"#utility.yul\":1655:1732   */\n  0x4e487b7100000000000000000000000000000000000000000000000000000000\n    /* \"#utility.yul\":1652:1653   */\n  0x00\n    /* \"#utility.yul\":1645:1733   */\n  mstore\n    /* \"#utility.yul\":1752:1756   */\n  0x11\n    /* \"#utility.yul\":1749:1750   */\n  0x04\n    /* \"#utility.yul\":1742:1757   */\n  mstore\n    /* \"#utility.yul\":1776:1780   */\n  0x24\n    /* \"#utility.yul\":1773:1774   */\n  0x00\n    /* \"#utility.yul\":1766:1781   */\n  revert\n    /* \"#utility.yul\":1793:1973   */\ntag_30:\n    /* \"#utility.yul\":1841:1918   */\n  0x4e487b7100000000000000000000000000000000000000000000000000000000\n    /* \"#utility.yul\":1838:1839   */\n  0x00\n    /* \"#utility.yul\":1831:1919   */\n  mstore\n    /* \"#utility.yul\":1938:1942   */\n  0x12\n    /* \"#utility.yul\":1935:1936   */\n  0x04\n    /* \"#utility.yul\":1928:1943   */\n  mstore\n    /* \"#utility.yul\":1962:1966   */\n  0x24\n    /* \"#utility.yul\":1959:1960   */\n  0x00\n    /* \"#utility.yul\":1952:1967   */\n  revert\n    /* \"#utility.yul\":1979:2159   */\ntag_5:\n    /* \"#utility.yul\":2027:2104   */\n  0x4e487b7100000000000000000000000000000000000000000000000000000000\n    /* \"#utility.yul\":2024:2025   */\n  0x00\n    /* \"#utility.yul\":2017:2105   */\n  mstore\n    /* \"#utility.yul\":2124:2128   */\n  0x21\n    /* \"#utility.yul\":2121:2122   */\n  0x04\n    /* \"#utility.yul\":2114:2129   */\n  mstore\n    /* \"#utility.yul\":2148:2152   */\n  0x24\n    /* \"#utility.yul\":2145:2146   */\n  0x00\n    /* \"#utility.yul\":2138:2153   */\n  revert\n    /* \"#utility.yul\":2165:2335   */\ntag_20:\n    /* \"#utility.yul\":2305:2327   */\n  0x76616c7565206973206e6f74206576656e212120000000000000000000000000\n    /* \"#utility.yul\":2301:2302   */\n  0x00\n    /* \"#utility.yul\":2293:2299   */\n  dup3\n    /* \"#utility.yul\":2289:2303   */\n  add\n    /* \"#utility.yul\":2282:2328   */\n  mstore\n    /* \"#utility.yul\":2165:2335   */\n  pop\n  jump\t// out\n    /* \"contracts_src/contracts/purchase.sol\":69:2136  contract Purchase {... */\ntag_13:\n  dataSize(sub_0)\n  dup1\n  dataOffset(sub_0)\n  0x00\n  codecopy\n  0x00\n  return\nstop\n\nsub_0: assembly {\n        /* \"contracts_src/contracts/purchase.sol\":69:2136  contract Purchase {... */\n      mstore(0x40, 0x80)\n      jumpi(tag_1, lt(calldatasize, 0x04))\n      shr(0xe0, calldataload(0x00))\n      dup1\n      0xc7981b1b\n      gt\n      tag_9\n      jumpi\n      dup1\n      0xc7981b1b\n      eq\n      tag_5\n      jumpi\n      dup1\n      0xe0e70bc4\n      eq\n      tag_6\n      jumpi\n      dup1\n      0xefff5e2f\n      eq\n      tag_7\n      jumpi\n      dup1\n      0xf40da391\n      eq\n      tag_8\n      jumpi\n      jump(tag_1)\n    tag_9:\n      dup1\n      0x0c3f6acf\n      eq\n      tag_2\n      jumpi\n      dup1\n      0x35a063b4\n      eq\n      tag_3\n      jumpi\n      dup1\n      0x3fa4f245\n      eq\n      tag_4\n      jumpi\n    tag_1:\n      0x00\n      dup1\n      revert\n        /* \"contracts_src/contracts/purchase.sol\":252:278  states public currentState */\n    tag_2:\n      callvalue\n      dup1\n      iszero\n      tag_10\n      jumpi\n      0x00\n      dup1\n      revert\n    tag_10:\n      pop\n      tag_11\n      tag_12\n      jump\t// in\n    tag_11:\n      mload(0x40)\n      tag_13\n      swap2\n      swap1\n      tag_14\n      jump\t// in\n    tag_13:\n      mload(0x40)\n      dup1\n      swap2\n      sub\n      swap1\n      return\n        /* \"contracts_src/contracts/purchase.sol\":1255:1434  function abort() public onlySeller inState(states.Created) {... */\n    tag_3:\n      callvalue\n      dup1\n      iszero\n      tag_15\n      jumpi\n      0x00\n      dup1\n      revert\n    tag_15:\n      pop\n      tag_16\n      tag_17\n      jump\t// in\n    tag_16:\n      stop\n        /* \"contracts_src/contracts/purchase.sol\":115:132  uint public value */\n    tag_4:\n      callvalue\n      dup1\n      iszero\n      tag_18\n      jumpi\n      0x00\n      dup1\n      revert\n    tag_18:\n      pop\n      tag_19\n      tag_20\n      jump\t// in\n    tag_19:\n      mload(0x40)\n      tag_21\n      swap2\n      swap1\n      tag_22\n      jump\t// in\n    tag_21:\n      mload(0x40)\n      dup1\n      swap2\n      sub\n      swap1\n      return\n        /* \"contracts_src/contracts/purchase.sol\":1843:2023  function refundSeller() public onlySeller inState(states.Released) {... */\n    tag_5:\n      callvalue\n      dup1\n      iszero\n      tag_23\n      jumpi\n      0x00\n      dup1\n      revert\n    tag_23:\n      pop\n      tag_24\n      tag_25\n      jump\t// in\n    tag_24:\n      stop\n        /* \"contracts_src/contracts/purchase.sol\":1440:1657  function confirnPurchase() public payable inState(states.Created) condition(msg.value == (2*value)) {... */\n    tag_6:\n      tag_26\n      tag_27\n      jump\t// in\n    tag_26:\n      stop\n        /* \"contracts_src/contracts/purchase.sol\":2029:2123  function _getBalance() public view returns(uint) {... */\n    tag_7:\n      callvalue\n      dup1\n      iszero\n      tag_28\n      jumpi\n      0x00\n      dup1\n      revert\n    tag_28:\n      pop\n      tag_29\n      tag_30\n      jump\t// in\n    tag_29:\n      mload(0x40)\n      tag_31\n      swap2\n      swap1\n      tag_22\n      jump\t// in\n    tag_31:\n      mload(0x40)\n      dup1\n      swap2\n      sub\n      swap1\n      return\n        /* \"contracts_src/contracts/purchase.sol\":1663:1837  function confirmRecived() public onlyBuyyer inState(states.Locked) {... */\n    tag_8:\n      callvalue\n      dup1\n      iszero\n      tag_32\n      jumpi\n      0x00\n      dup1\n      revert\n    tag_32:\n      pop\n      tag_33\n      tag_34\n      jump\t// in\n    tag_33:\n      stop\n        /* \"contracts_src/contracts/purchase.sol\":252:278  states public currentState */\n    tag_12:\n      0x02\n      0x14\n      swap1\n      sload\n      swap1\n      0x0100\n      exp\n      swap1\n      div\n      0xff\n      and\n      dup2\n      jump\t// out\n        /* \"contracts_src/contracts/purchase.sol\":1255:1434  function abort() public onlySeller inState(states.Created) {... */\n    tag_17:\n        /* \"contracts_src/contracts/purchase.sol\":496:502  seller */\n      0x01\n      0x00\n      swap1\n      sload\n      swap1\n      0x0100\n      exp\n      swap1\n      div\n      0xffffffffffffffffffffffffffffffffffffffff\n      and\n        /* \"contracts_src/contracts/purchase.sol\":482:502  msg.sender != seller */\n      0xffffffffffffffffffffffffffffffffffffffff\n      and\n        /* \"contracts_src/contracts/purchase.sol\":482:492  msg.sender */\n      caller\n        /* \"contracts_src/contracts/purchase.sol\":482:502  msg.sender != seller */\n      0xffffffffffffffffffffffffffffffffffffffff\n      and\n      eq\n        /* \"contracts_src/contracts/purchase.sol\":479:560  if(msg.sender != seller) ... */\n      tag_36\n      jumpi\n        /* \"contracts_src/contracts/purchase.sol\":513:560  revert(\"only seller can call this function !!\") */\n      mload(0x40)\n      0x08c379a000000000000000000000000000000000000000000000000000000000\n      dup2\n      mstore\n      0x04\n      add\n      tag_37\n      swap1\n      tag_38\n      jump\t// in\n    tag_37:\n      mload(0x40)\n      dup1\n      swap2\n      sub\n      swap1\n      revert\n        /* \"contracts_src/contracts/purchase.sol\":479:560  if(msg.sender != seller) ... */\n    tag_36:\n        /* \"contracts_src/contracts/purchase.sol\":1298:1312  states.Created */\n      0x00\n        /* \"contracts_src/contracts/purchase.sol\":801:807  _state */\n      dup1\n        /* \"contracts_src/contracts/purchase.sol\":785:807  currentState != _state */\n      0x03\n      dup2\n      gt\n      iszero\n      tag_40\n      jumpi\n      tag_41\n      tag_42\n      jump\t// in\n    tag_41:\n    tag_40:\n        /* \"contracts_src/contracts/purchase.sol\":785:797  currentState */\n      0x02\n      0x14\n      swap1\n      sload\n      swap1\n      0x0100\n      exp\n      swap1\n      div\n      0xff\n      and\n        /* \"contracts_src/contracts/purchase.sol\":785:807  currentState != _state */\n      0x03\n      dup2\n      gt\n      iszero\n      tag_43\n      jumpi\n      tag_44\n      tag_42\n      jump\t// in\n    tag_44:\n    tag_43:\n      eq\n        /* \"contracts_src/contracts/purchase.sol\":781:840  if (currentState != _state)... */\n      tag_45\n      jumpi\n        /* \"contracts_src/contracts/purchase.sol\":817:840  revert(\"invalid state\") */\n      mload(0x40)\n      0x08c379a000000000000000000000000000000000000000000000000000000000\n      dup2\n      mstore\n      0x04\n      add\n      tag_46\n      swap1\n      tag_47\n      jump\t// in\n    tag_46:\n      mload(0x40)\n      dup1\n      swap2\n      sub\n      swap1\n      revert\n        /* \"contracts_src/contracts/purchase.sol\":781:840  if (currentState != _state)... */\n    tag_45:\n        /* \"contracts_src/contracts/purchase.sol\":1339:1355  states.Inactived */\n      0x03\n        /* \"contracts_src/contracts/purchase.sol\":1324:1336  currentState */\n      0x02\n      0x14\n        /* \"contracts_src/contracts/purchase.sol\":1324:1355  currentState = states.Inactived */\n      0x0100\n      exp\n      dup2\n      sload\n      dup2\n      0xff\n      mul\n      not\n      and\n      swap1\n      dup4\n      0x03\n      dup2\n      gt\n      iszero\n      tag_49\n      jumpi\n      tag_50\n      tag_42\n      jump\t// in\n    tag_50:\n    tag_49:\n      mul\n      or\n      swap1\n      sstore\n      pop\n        /* \"contracts_src/contracts/purchase.sol\":1365:1371  seller */\n      0x01\n      0x00\n      swap1\n      sload\n      swap1\n      0x0100\n      exp\n      swap1\n      div\n      0xffffffffffffffffffffffffffffffffffffffff\n      and\n        /* \"contracts_src/contracts/purchase.sol\":1365:1380  seller.transfer */\n      0xffffffffffffffffffffffffffffffffffffffff\n      and\n        /* \"contracts_src/contracts/purchase.sol\":1365:1403  seller.transfer(address(this).balance) */\n      0x08fc\n        /* \"contracts_src/contracts/purchase.sol\":1381:1402  address(this).balance */\n      selfbalance\n        /* \"contracts_src/contracts/purchase.sol\":1365:1403  seller.transfer(address(this).balance) */\n      swap1\n      dup2\n      iszero\n      mul\n      swap1\n      mload(0x40)\n      0x00\n      mload(0x40)\n      dup1\n      dup4\n      sub\n      dup2\n      dup6\n      dup9\n      dup9\n      call\n      swap4\n      pop\n      pop\n      pop\n      pop\n      iszero\n      dup1\n      iszero\n      tag_52\n      jumpi\n      returndatasize\n      0x00\n      dup1\n      returndatacopy\n      revert(0x00, returndatasize)\n    tag_52:\n      pop\n        /* \"contracts_src/contracts/purchase.sol\":1418:1427  Aborted() */\n      0x72c874aeff0b183a56e2b79c71b46e1aed4dee5e09862134b8821ba2fddbf8bf\n      mload(0x40)\n      mload(0x40)\n      dup1\n      swap2\n      sub\n      swap1\n      log1\n        /* \"contracts_src/contracts/purchase.sol\":570:571  _ */\n      pop\n        /* \"contracts_src/contracts/purchase.sol\":1255:1434  function abort() public onlySeller inState(states.Created) {... */\n      jump\t// out\n        /* \"contracts_src/contracts/purchase.sol\":115:132  uint public value */\n    tag_20:\n      sload(0x00)\n      dup2\n      jump\t// out\n        /* \"contracts_src/contracts/purchase.sol\":1843:2023  function refundSeller() public onlySeller inState(states.Released) {... */\n    tag_25:\n        /* \"contracts_src/contracts/purchase.sol\":496:502  seller */\n      0x01\n      0x00\n      swap1\n      sload\n      swap1\n      0x0100\n      exp\n      swap1\n      div\n      0xffffffffffffffffffffffffffffffffffffffff\n      and\n        /* \"contracts_src/contracts/purchase.sol\":482:502  msg.sender != seller */\n      0xffffffffffffffffffffffffffffffffffffffff\n      and\n        /* \"contracts_src/contracts/purchase.sol\":482:492  msg.sender */\n      caller\n        /* \"contracts_src/contracts/purchase.sol\":482:502  msg.sender != seller */\n      0xffffffffffffffffffffffffffffffffffffffff\n      and\n      eq\n        /* \"contracts_src/contracts/purchase.sol\":479:560  if(msg.sender != seller) ... */\n      tag_54\n      jumpi\n        /* \"contracts_src/contracts/purchase.sol\":513:560  revert(\"only seller can call this function !!\") */\n      mload(0x40)\n      0x08c379a000000000000000000000000000000000000000000000000000000000\n      dup2\n      mstore\n      0x04\n      add\n      tag_55\n      swap1\n      tag_38\n      jump\t// in\n    tag_55:\n      mload(0x40)\n      dup1\n      swap2\n      sub\n      swap1\n      revert\n        /* \"contracts_src/contracts/purchase.sol\":479:560  if(msg.sender != seller) ... */\n    tag_54:\n        /* \"contracts_src/contracts/purchase.sol\":1893:1908  states.Released */\n      0x02\n        /* \"contracts_src/contracts/purchase.sol\":801:807  _state */\n      dup1\n        /* \"contracts_src/contracts/purchase.sol\":785:807  currentState != _state */\n      0x03\n      dup2\n      gt\n      iszero\n      tag_57\n      jumpi\n      tag_58\n      tag_42\n      jump\t// in\n    tag_58:\n    tag_57:\n        /* \"contracts_src/contracts/purchase.sol\":785:797  currentState */\n      0x02\n      0x14\n      swap1\n      sload\n      swap1\n      0x0100\n      exp\n      swap1\n      div\n      0xff\n      and\n        /* \"contracts_src/contracts/purchase.sol\":785:807  currentState != _state */\n      0x03\n      dup2\n      gt\n      iszero\n      tag_59\n      jumpi\n      tag_60\n      tag_42\n      jump\t// in\n    tag_60:\n    tag_59:\n      eq\n        /* \"contracts_src/contracts/purchase.sol\":781:840  if (currentState != _state)... */\n      tag_61\n      jumpi\n        /* \"contracts_src/contracts/purchase.sol\":817:840  revert(\"invalid state\") */\n      mload(0x40)\n      0x08c379a000000000000000000000000000000000000000000000000000000000\n      dup2\n      mstore\n      0x04\n      add\n      tag_62\n      swap1\n      tag_47\n      jump\t// in\n    tag_62:\n      mload(0x40)\n      dup1\n      swap2\n      sub\n      swap1\n      revert\n        /* \"contracts_src/contracts/purchase.sol\":781:840  if (currentState != _state)... */\n    tag_61:\n        /* \"contracts_src/contracts/purchase.sol\":1935:1951  states.Inactived */\n      0x03\n        /* \"contracts_src/contracts/purchase.sol\":1920:1932  currentState */\n      0x02\n      0x14\n        /* \"contracts_src/contracts/purchase.sol\":1920:1951  currentState = states.Inactived */\n      0x0100\n      exp\n      dup2\n      sload\n      dup2\n      0xff\n      mul\n      not\n      and\n      swap1\n      dup4\n      0x03\n      dup2\n      gt\n      iszero\n      tag_64\n      jumpi\n      tag_65\n      tag_42\n      jump\t// in\n    tag_65:\n    tag_64:\n      mul\n      or\n      swap1\n      sstore\n      pop\n        /* \"contracts_src/contracts/purchase.sol\":1961:1967  seller */\n      0x01\n      0x00\n      swap1\n      sload\n      swap1\n      0x0100\n      exp\n      swap1\n      div\n      0xffffffffffffffffffffffffffffffffffffffff\n      and\n        /* \"contracts_src/contracts/purchase.sol\":1961:1976  seller.transfer */\n      0xffffffffffffffffffffffffffffffffffffffff\n      and\n        /* \"contracts_src/contracts/purchase.sol\":1961:1985  seller.transfer(3*value) */\n      0x08fc\n        /* \"contracts_src/contracts/purchase.sol\":1979:1984  value */\n      sload(0x00)\n        /* \"contracts_src/contracts/purchase.sol\":1977:1978  3 */\n      0x03\n        /* \"contracts_src/contracts/purchase.sol\":1977:1984  3*value */\n      tag_66\n      swap2\n      swap1\n      tag_67\n      jump\t// in\n    tag_66:\n        /* \"contracts_src/contracts/purchase.sol\":1961:1985  seller.transfer(3*value) */\n      swap1\n      dup2\n      iszero\n      mul\n      swap1\n      mload(0x40)\n      0x00\n      mload(0x40)\n      dup1\n      dup4\n      sub\n      dup2\n      dup6\n      dup9\n      dup9\n      call\n      swap4\n      pop\n      pop\n      pop\n      pop\n      iszero\n      dup1\n      iszero\n      tag_69\n      jumpi\n      returndatasize\n      0x00\n      dup1\n      returndatacopy\n      revert(0x00, returndatasize)\n    tag_69:\n      pop\n        /* \"contracts_src/contracts/purchase.sol\":2000:2016  SellerRefunded() */\n      0xfda69c32bcfdba840a167777906b173b607eb8b4d8853b97a80d26e613d858db\n      mload(0x40)\n      mload(0x40)\n      dup1\n      swap2\n      sub\n      swap1\n      log1\n        /* \"contracts_src/contracts/purchase.sol\":570:571  _ */\n      pop\n        /* \"contracts_src/contracts/purchase.sol\":1843:2023  function refundSeller() public onlySeller inState(states.Released) {... */\n      jump\t// out\n        /* \"contracts_src/contracts/purchase.sol\":1440:1657  function confirnPurchase() public payable inState(states.Created) condition(msg.value == (2*value)) {... */\n    tag_27:\n        /* \"contracts_src/contracts/purchase.sol\":1490:1504  states.Created */\n      0x00\n        /* \"contracts_src/contracts/purchase.sol\":801:807  _state */\n      dup1\n        /* \"contracts_src/contracts/purchase.sol\":785:807  currentState != _state */\n      0x03\n      dup2\n      gt\n      iszero\n      tag_71\n      jumpi\n      tag_72\n      tag_42\n      jump\t// in\n    tag_72:\n    tag_71:\n        /* \"contracts_src/contracts/purchase.sol\":785:797  currentState */\n      0x02\n      0x14\n      swap1\n      sload\n      swap1\n      0x0100\n      exp\n      swap1\n      div\n      0xff\n      and\n        /* \"contracts_src/contracts/purchase.sol\":785:807  currentState != _state */\n      0x03\n      dup2\n      gt\n      iszero\n      tag_73\n      jumpi\n      tag_74\n      tag_42\n      jump\t// in\n    tag_74:\n    tag_73:\n      eq\n        /* \"contracts_src/contracts/purchase.sol\":781:840  if (currentState != _state)... */\n      tag_75\n      jumpi\n        /* \"contracts_src/contracts/purchase.sol\":817:840  revert(\"invalid state\") */\n      mload(0x40)\n      0x08c379a000000000000000000000000000000000000000000000000000000000\n      dup2\n      mstore\n      0x04\n      add\n      tag_76\n      swap1\n      tag_47\n      jump\t// in\n    tag_76:\n      mload(0x40)\n      dup1\n      swap2\n      sub\n      swap1\n      revert\n        /* \"contracts_src/contracts/purchase.sol\":781:840  if (currentState != _state)... */\n    tag_75:\n        /* \"contracts_src/contracts/purchase.sol\":1532:1537  value */\n      sload(0x00)\n        /* \"contracts_src/contracts/purchase.sol\":1530:1531  2 */\n      0x02\n        /* \"contracts_src/contracts/purchase.sol\":1530:1537  2*value */\n      tag_77\n      swap2\n      swap1\n      tag_67\n      jump\t// in\n    tag_77:\n        /* \"contracts_src/contracts/purchase.sol\":1516:1525  msg.value */\n      callvalue\n        /* \"contracts_src/contracts/purchase.sol\":1516:1538  msg.value == (2*value) */\n      eq\n        /* \"contracts_src/contracts/purchase.sol\":384:394  _condition */\n      dup1\n        /* \"contracts_src/contracts/purchase.sol\":376:422  require(_condition , \"condition is not true!\") */\n      tag_79\n      jumpi\n      mload(0x40)\n      0x08c379a000000000000000000000000000000000000000000000000000000000\n      dup2\n      mstore\n      0x04\n      add\n      tag_80\n      swap1\n      tag_81\n      jump\t// in\n    tag_80:\n      mload(0x40)\n      dup1\n      swap2\n      sub\n      swap1\n      revert\n    tag_79:\n        /* \"contracts_src/contracts/purchase.sol\":1565:1578  states.Locked */\n      0x01\n        /* \"contracts_src/contracts/purchase.sol\":1550:1562  currentState */\n      0x02\n      0x14\n        /* \"contracts_src/contracts/purchase.sol\":1550:1578  currentState = states.Locked */\n      0x0100\n      exp\n      dup2\n      sload\n      dup2\n      0xff\n      mul\n      not\n      and\n      swap1\n      dup4\n      0x03\n      dup2\n      gt\n      iszero\n      tag_83\n      jumpi\n      tag_84\n      tag_42\n      jump\t// in\n    tag_84:\n    tag_83:\n      mul\n      or\n      swap1\n      sstore\n      pop\n        /* \"contracts_src/contracts/purchase.sol\":1605:1615  msg.sender */\n      caller\n        /* \"contracts_src/contracts/purchase.sol\":1588:1594  buyyer */\n      0x02\n      0x00\n        /* \"contracts_src/contracts/purchase.sol\":1588:1616  buyyer = payable(msg.sender) */\n      0x0100\n      exp\n      dup2\n      sload\n      dup2\n      0xffffffffffffffffffffffffffffffffffffffff\n      mul\n      not\n      and\n      swap1\n      dup4\n      0xffffffffffffffffffffffffffffffffffffffff\n      and\n      mul\n      or\n      swap1\n      sstore\n      pop\n        /* \"contracts_src/contracts/purchase.sol\":1631:1650  PurchaseConfirmed() */\n      0xd5d55c8a68912e9a110618df8d5e2e83b8d83211c57a8ddd1203df92885dc881\n      mload(0x40)\n      mload(0x40)\n      dup1\n      swap2\n      sub\n      swap1\n      log1\n        /* \"contracts_src/contracts/purchase.sol\":850:851  _ */\n      pop\n        /* \"contracts_src/contracts/purchase.sol\":1440:1657  function confirnPurchase() public payable inState(states.Created) condition(msg.value == (2*value)) {... */\n      pop\n      jump\t// out\n        /* \"contracts_src/contracts/purchase.sol\":2029:2123  function _getBalance() public view returns(uint) {... */\n    tag_30:\n        /* \"contracts_src/contracts/purchase.sol\":2072:2076  uint */\n      0x00\n        /* \"contracts_src/contracts/purchase.sol\":2095:2116  address(this).balance */\n      selfbalance\n        /* \"contracts_src/contracts/purchase.sol\":2088:2116  return address(this).balance */\n      swap1\n      pop\n        /* \"contracts_src/contracts/purchase.sol\":2029:2123  function _getBalance() public view returns(uint) {... */\n      swap1\n      jump\t// out\n        /* \"contracts_src/contracts/purchase.sol\":1663:1837  function confirmRecived() public onlyBuyyer inState(states.Locked) {... */\n    tag_34:\n        /* \"contracts_src/contracts/purchase.sol\":643:649  buyyer */\n      0x02\n      0x00\n      swap1\n      sload\n      swap1\n      0x0100\n      exp\n      swap1\n      div\n      0xffffffffffffffffffffffffffffffffffffffff\n      and\n        /* \"contracts_src/contracts/purchase.sol\":629:649  msg.sender != buyyer */\n      0xffffffffffffffffffffffffffffffffffffffff\n      and\n        /* \"contracts_src/contracts/purchase.sol\":629:639  msg.sender */\n      caller\n        /* \"contracts_src/contracts/purchase.sol\":629:649  msg.sender != buyyer */\n      0xffffffffffffffffffffffffffffffffffffffff\n      and\n      eq\n        /* \"contracts_src/contracts/purchase.sol\":626:707  if(msg.sender != buyyer) ... */\n      tag_87\n      jumpi\n        /* \"contracts_src/contracts/purchase.sol\":660:707  revert(\"only buyyer can call this function !!\") */\n      mload(0x40)\n      0x08c379a000000000000000000000000000000000000000000000000000000000\n      dup2\n      mstore\n      0x04\n      add\n      tag_88\n      swap1\n      tag_89\n      jump\t// in\n    tag_88:\n      mload(0x40)\n      dup1\n      swap2\n      sub\n      swap1\n      revert\n        /* \"contracts_src/contracts/purchase.sol\":626:707  if(msg.sender != buyyer) ... */\n    tag_87:\n        /* \"contracts_src/contracts/purchase.sol\":1715:1728  states.Locked */\n      0x01\n        /* \"contracts_src/contracts/purchase.sol\":801:807  _state */\n      dup1\n        /* \"contracts_src/contracts/purchase.sol\":785:807  currentState != _state */\n      0x03\n      dup2\n      gt\n      iszero\n      tag_91\n      jumpi\n      tag_92\n      tag_42\n      jump\t// in\n    tag_92:\n    tag_91:\n        /* \"contracts_src/contracts/purchase.sol\":785:797  currentState */\n      0x02\n      0x14\n      swap1\n      sload\n      swap1\n      0x0100\n      exp\n      swap1\n      div\n      0xff\n      and\n        /* \"contracts_src/contracts/purchase.sol\":785:807  currentState != _state */\n      0x03\n      dup2\n      gt\n      iszero\n      tag_93\n      jumpi\n      tag_94\n      tag_42\n      jump\t// in\n    tag_94:\n    tag_93:\n      eq\n        /* \"contracts_src/contracts/purchase.sol\":781:840  if (currentState != _state)... */\n      tag_95\n      jumpi\n        /* \"contracts_src/contracts/purchase.sol\":817:840  revert(\"invalid state\") */\n      mload(0x40)\n      0x08c379a000000000000000000000000000000000000000000000000000000000\n      dup2\n      mstore\n      0x04\n      add\n      tag_96\n      swap1\n      tag_47\n      jump\t// in\n    tag_96:\n      mload(0x40)\n      dup1\n      swap2\n      sub\n      swap1\n      revert\n        /* \"contracts_src/contracts/purchase.sol\":781:840  if (currentState != _state)... */\n    tag_95:\n        /* \"contracts_src/contracts/purchase.sol\":1755:1770  states.Released */\n      0x02\n        /* \"contracts_src/contracts/purchase.sol\":1740:1752  currentState */\n      dup1\n      0x14\n        /* \"contracts_src/contracts/purchase.sol\":1740:1770  currentState = states.Released */\n      0x0100\n      exp\n      dup2\n      sload\n      dup2\n      0xff\n      mul\n      not\n      and\n      swap1\n      dup4\n      0x03\n      dup2\n      gt\n      iszero\n      tag_98\n      jumpi\n      tag_99\n      tag_42\n      jump\t// in\n    tag_99:\n    tag_98:\n      mul\n      or\n      swap1\n      sstore\n      pop\n        /* \"contracts_src/contracts/purchase.sol\":1780:1786  buyyer */\n      0x02\n      0x00\n      swap1\n      sload\n      swap1\n      0x0100\n      exp\n      swap1\n      div\n      0xffffffffffffffffffffffffffffffffffffffff\n      and\n        /* \"contracts_src/contracts/purchase.sol\":1780:1795  buyyer.transfer */\n      0xffffffffffffffffffffffffffffffffffffffff\n      and\n        /* \"contracts_src/contracts/purchase.sol\":1780:1802  buyyer.transfer(value) */\n      0x08fc\n        /* \"contracts_src/contracts/purchase.sol\":1796:1801  value */\n      sload(0x00)\n        /* \"contracts_src/contracts/purchase.sol\":1780:1802  buyyer.transfer(value) */\n      swap1\n      dup2\n      iszero\n      mul\n      swap1\n      mload(0x40)\n      0x00\n      mload(0x40)\n      dup1\n      dup4\n      sub\n      dup2\n      dup6\n      dup9\n      dup9\n      call\n      swap4\n      pop\n      pop\n      pop\n      pop\n      iszero\n      dup1\n      iszero\n      tag_101\n      jumpi\n      returndatasize\n      0x00\n      dup1\n      returndatacopy\n      revert(0x00, returndatasize)\n    tag_101:\n      pop\n        /* \"contracts_src/contracts/purchase.sol\":1817:1830  ItemRecived() */\n      0xc87402942a27c7f22a1f5e0283a6df8e8b7dde3e043e07185de690464fe9b240\n      mload(0x40)\n      mload(0x40)\n      dup1\n      swap2\n      sub\n      swap1\n      log1\n        /* \"contracts_src/contracts/purchase.sol\":717:718  _ */\n      pop\n        /* \"contracts_src/contracts/purchase.sol\":1663:1837  function confirmRecived() public onlyBuyyer inState(states.Locked) {... */\n      jump\t// out\n        /* \"#utility.yul\":7:152   */\n    tag_103:\n        /* \"#utility.yul\":101:145   */\n      tag_105\n        /* \"#utility.yul\":139:144   */\n      dup2\n        /* \"#utility.yul\":101:145   */\n      tag_106\n      jump\t// in\n    tag_105:\n        /* \"#utility.yul\":96:99   */\n      dup3\n        /* \"#utility.yul\":89:146   */\n      mstore\n        /* \"#utility.yul\":7:152   */\n      pop\n      pop\n      jump\t// out\n        /* \"#utility.yul\":158:524   */\n    tag_107:\n        /* \"#utility.yul\":300:303   */\n      0x00\n        /* \"#utility.yul\":321:388   */\n      tag_109\n        /* \"#utility.yul\":385:387   */\n      0x25\n        /* \"#utility.yul\":380:383   */\n      dup4\n        /* \"#utility.yul\":321:388   */\n      tag_110\n      jump\t// in\n    tag_109:\n        /* \"#utility.yul\":314:388   */\n      swap2\n      pop\n        /* \"#utility.yul\":397:490   */\n      tag_111\n        /* \"#utility.yul\":486:489   */\n      dup3\n        /* \"#utility.yul\":397:490   */\n      tag_112\n      jump\t// in\n    tag_111:\n        /* \"#utility.yul\":515:517   */\n      0x40\n        /* \"#utility.yul\":510:513   */\n      dup3\n        /* \"#utility.yul\":506:518   */\n      add\n        /* \"#utility.yul\":499:518   */\n      swap1\n      pop\n        /* \"#utility.yul\":158:524   */\n      swap2\n      swap1\n      pop\n      jump\t// out\n        /* \"#utility.yul\":530:896   */\n    tag_113:\n        /* \"#utility.yul\":672:675   */\n      0x00\n        /* \"#utility.yul\":693:760   */\n      tag_115\n        /* \"#utility.yul\":757:759   */\n      0x16\n        /* \"#utility.yul\":752:755   */\n      dup4\n        /* \"#utility.yul\":693:760   */\n      tag_110\n      jump\t// in\n    tag_115:\n        /* \"#utility.yul\":686:760   */\n      swap2\n      pop\n        /* \"#utility.yul\":769:862   */\n      tag_116\n        /* \"#utility.yul\":858:861   */\n      dup3\n        /* \"#utility.yul\":769:862   */\n      tag_117\n      jump\t// in\n    tag_116:\n        /* \"#utility.yul\":887:889   */\n      0x20\n        /* \"#utility.yul\":882:885   */\n      dup3\n        /* \"#utility.yul\":878:890   */\n      add\n        /* \"#utility.yul\":871:890   */\n      swap1\n      pop\n        /* \"#utility.yul\":530:896   */\n      swap2\n      swap1\n      pop\n      jump\t// out\n        /* \"#utility.yul\":902:1268   */\n    tag_118:\n        /* \"#utility.yul\":1044:1047   */\n      0x00\n        /* \"#utility.yul\":1065:1132   */\n      tag_120\n        /* \"#utility.yul\":1129:1131   */\n      0x25\n        /* \"#utility.yul\":1124:1127   */\n      dup4\n        /* \"#utility.yul\":1065:1132   */\n      tag_110\n      jump\t// in\n    tag_120:\n        /* \"#utility.yul\":1058:1132   */\n      swap2\n      pop\n        /* \"#utility.yul\":1141:1234   */\n      tag_121\n        /* \"#utility.yul\":1230:1233   */\n      dup3\n        /* \"#utility.yul\":1141:1234   */\n      tag_122\n      jump\t// in\n    tag_121:\n        /* \"#utility.yul\":1259:1261   */\n      0x40\n        /* \"#utility.yul\":1254:1257   */\n      dup3\n        /* \"#utility.yul\":1250:1262   */\n      add\n        /* \"#utility.yul\":1243:1262   */\n      swap1\n      pop\n        /* \"#utility.yul\":902:1268   */\n      swap2\n      swap1\n      pop\n      jump\t// out\n        /* \"#utility.yul\":1274:1640   */\n    tag_123:\n        /* \"#utility.yul\":1416:1419   */\n      0x00\n        /* \"#utility.yul\":1437:1504   */\n      tag_125\n        /* \"#utility.yul\":1501:1503   */\n      0x0d\n        /* \"#utility.yul\":1496:1499   */\n      dup4\n        /* \"#utility.yul\":1437:1504   */\n      tag_110\n      jump\t// in\n    tag_125:\n        /* \"#utility.yul\":1430:1504   */\n      swap2\n      pop\n        /* \"#utility.yul\":1513:1606   */\n      tag_126\n        /* \"#utility.yul\":1602:1605   */\n      dup3\n        /* \"#utility.yul\":1513:1606   */\n      tag_127\n      jump\t// in\n    tag_126:\n        /* \"#utility.yul\":1631:1633   */\n      0x20\n        /* \"#utility.yul\":1626:1629   */\n      dup3\n        /* \"#utility.yul\":1622:1634   */\n      add\n        /* \"#utility.yul\":1615:1634   */\n      swap1\n      pop\n        /* \"#utility.yul\":1274:1640   */\n      swap2\n      swap1\n      pop\n      jump\t// out\n        /* \"#utility.yul\":1646:1764   */\n    tag_128:\n        /* \"#utility.yul\":1733:1757   */\n      tag_130\n        /* \"#utility.yul\":1751:1756   */\n      dup2\n        /* \"#utility.yul\":1733:1757   */\n      tag_131\n      jump\t// in\n    tag_130:\n        /* \"#utility.yul\":1728:1731   */\n      dup3\n        /* \"#utility.yul\":1721:1758   */\n      mstore\n        /* \"#utility.yul\":1646:1764   */\n      pop\n      pop\n      jump\t// out\n        /* \"#utility.yul\":1770:2006   */\n    tag_14:\n        /* \"#utility.yul\":1870:1874   */\n      0x00\n        /* \"#utility.yul\":1908:1910   */\n      0x20\n        /* \"#utility.yul\":1897:1906   */\n      dup3\n        /* \"#utility.yul\":1893:1911   */\n      add\n        /* \"#utility.yul\":1885:1911   */\n      swap1\n      pop\n        /* \"#utility.yul\":1921:1999   */\n      tag_133\n        /* \"#utility.yul\":1996:1997   */\n      0x00\n        /* \"#utility.yul\":1985:1994   */\n      dup4\n        /* \"#utility.yul\":1981:1998   */\n      add\n        /* \"#utility.yul\":1972:1978   */\n      dup5\n        /* \"#utility.yul\":1921:1999   */\n      tag_103\n      jump\t// in\n    tag_133:\n        /* \"#utility.yul\":1770:2006   */\n      swap3\n      swap2\n      pop\n      pop\n      jump\t// out\n        /* \"#utility.yul\":2012:2431   */\n    tag_89:\n        /* \"#utility.yul\":2178:2182   */\n      0x00\n        /* \"#utility.yul\":2216:2218   */\n      0x20\n        /* \"#utility.yul\":2205:2214   */\n      dup3\n        /* \"#utility.yul\":2201:2219   */\n      add\n        /* \"#utility.yul\":2193:2219   */\n      swap1\n      pop\n        /* \"#utility.yul\":2265:2274   */\n      dup2\n        /* \"#utility.yul\":2259:2263   */\n      dup2\n        /* \"#utility.yul\":2255:2275   */\n      sub\n        /* \"#utility.yul\":2251:2252   */\n      0x00\n        /* \"#utility.yul\":2240:2249   */\n      dup4\n        /* \"#utility.yul\":2236:2253   */\n      add\n        /* \"#utility.yul\":2229:2276   */\n      mstore\n        /* \"#utility.yul\":2293:2424   */\n      tag_135\n        /* \"#utility.yul\":2419:2423   */\n      dup2\n        /* \"#utility.yul\":2293:2424   */\n      tag_107\n      jump\t// in\n    tag_135:\n        /* \"#utility.yul\":2285:2424   */\n      swap1\n      pop\n        /* \"#utility.yul\":2012:2431   */\n      swap2\n      swap1\n      pop\n      jump\t// out\n        /* \"#utility.yul\":2437:2856   */\n    tag_81:\n        /* \"#utility.yul\":2603:2607   */\n      0x00\n        /* \"#utility.yul\":2641:2643   */\n      0x20\n        /* \"#utility.yul\":2630:2639   */\n      dup3\n        /* \"#utility.yul\":2626:2644   */\n      add\n        /* \"#utility.yul\":2618:2644   */\n      swap1\n      pop\n        /* \"#utility.yul\":2690:2699   */\n      dup2\n        /* \"#utility.yul\":2684:2688   */\n      dup2\n        /* \"#utility.yul\":2680:2700   */\n      sub\n        /* \"#utility.yul\":2676:2677   */\n      0x00\n        /* \"#utility.yul\":2665:2674   */\n      dup4\n        /* \"#utility.yul\":2661:2678   */\n      add\n        /* \"#utility.yul\":2654:2701   */\n      mstore\n        /* \"#utility.yul\":2718:2849   */\n      tag_137\n        /* \"#utility.yul\":2844:2848   */\n      dup2\n        /* \"#utility.yul\":2718:2849   */\n      tag_113\n      jump\t// in\n    tag_137:\n        /* \"#utility.yul\":2710:2849   */\n      swap1\n      pop\n        /* \"#utility.yul\":2437:2856   */\n      swap2\n      swap1\n      pop\n      jump\t// out\n        /* \"#utility.yul\":2862:3281   */\n    tag_38:\n        /* \"#utility.yul\":3028:3032   */\n      0x00\n        /* \"#utility.yul\":3066:3068   */\n      0x20\n        /* \"#utility.yul\":3055:3064   */\n      dup3\n        /* \"#utility.yul\":3051:3069   */\n      add\n        /* \"#utility.yul\":3043:3069   */\n      swap1\n      pop\n        /* \"#utility.yul\":3115:3124   */\n      dup2\n        /* \"#utility.yul\":3109:3113   */\n      dup2\n        /* \"#utility.yul\":3105:3125   */\n      sub\n        /* \"#utility.yul\":3101:3102   */\n      0x00\n        /* \"#utility.yul\":3090:3099   */\n      dup4\n        /* \"#utility.yul\":3086:3103   */\n      add\n        /* \"#utility.yul\":3079:3126   */\n      mstore\n        /* \"#utility.yul\":3143:3274   */\n      tag_139\n        /* \"#utility.yul\":3269:3273   */\n      dup2\n        /* \"#utility.yul\":3143:3274   */\n      tag_118\n      jump\t// in\n    tag_139:\n        /* \"#utility.yul\":3135:3274   */\n      swap1\n      pop\n        /* \"#utility.yul\":2862:3281   */\n      swap2\n      swap1\n      pop\n      jump\t// out\n        /* \"#utility.yul\":3287:3706   */\n    tag_47:\n        /* \"#utility.yul\":3453:3457   */\n      0x00\n        /* \"#utility.yul\":3491:3493   */\n      0x20\n        /* \"#utility.yul\":3480:3489   */\n      dup3\n        /* \"#utility.yul\":3476:3494   */\n      add\n        /* \"#utility.yul\":3468:3494   */\n      swap1\n      pop\n        /* \"#utility.yul\":3540:3549   */\n      dup2\n        /* \"#utility.yul\":3534:3538   */\n      dup2\n        /* \"#utility.yul\":3530:3550   */\n      sub\n        /* \"#utility.yul\":3526:3527   */\n      0x00\n        /* \"#utility.yul\":3515:3524   */\n      dup4\n        /* \"#utility.yul\":3511:3528   */\n      add\n        /* \"#utility.yul\":3504:3551   */\n      mstore\n        /* \"#utility.yul\":3568:3699   */\n      tag_141\n        /* \"#utility.yul\":3694:3698   */\n      dup2\n        /* \"#utility.yul\":3568:3699   */\n      tag_123\n      jump\t// in\n    tag_141:\n        /* \"#utility.yul\":3560:3699   */\n      swap1\n      pop\n        /* \"#utility.yul\":3287:3706   */\n      swap2\n      swap1\n      pop\n      jump\t// out\n        /* \"#utility.yul\":3712:3934   */\n    tag_22:\n        /* \"#utility.yul\":3805:3809   */\n      0x00\n        /* \"#utility.yul\":3843:3845   */\n      0x20\n        /* \"#utility.yul\":3832:3841   */\n      dup3\n        /* \"#utility.yul\":3828:3846   */\n      add\n        /* \"#utility.yul\":3820:3846   */\n      swap1\n      pop\n        /* \"#utility.yul\":3856:3927   */\n      tag_143\n        /* \"#utility.yul\":3924:3925   */\n      0x00\n        /* \"#utility.yul\":3913:3922   */\n      dup4\n        /* \"#utility.yul\":3909:3926   */\n      add\n        /* \"#utility.yul\":3900:3906   */\n      dup5\n        /* \"#utility.yul\":3856:3927   */\n      tag_128\n      jump\t// in\n    tag_143:\n        /* \"#utility.yul\":3712:3934   */\n      swap3\n      swap2\n      pop\n      pop\n      jump\t// out\n        /* \"#utility.yul\":3940:4109   */\n    tag_110:\n        /* \"#utility.yul\":4024:4035   */\n      0x00\n        /* \"#utility.yul\":4058:4064   */\n      dup3\n        /* \"#utility.yul\":4053:4056   */\n      dup3\n        /* \"#utility.yul\":4046:4065   */\n      mstore\n        /* \"#utility.yul\":4098:4102   */\n      0x20\n        /* \"#utility.yul\":4093:4096   */\n      dup3\n        /* \"#utility.yul\":4089:4103   */\n      add\n        /* \"#utility.yul\":4074:4103   */\n      swap1\n      pop\n        /* \"#utility.yul\":3940:4109   */\n      swap3\n      swap2\n      pop\n      pop\n      jump\t// out\n        /* \"#utility.yul\":4115:4463   */\n    tag_67:\n        /* \"#utility.yul\":4155:4162   */\n      0x00\n        /* \"#utility.yul\":4178:4198   */\n      tag_146\n        /* \"#utility.yul\":4196:4197   */\n      dup3\n        /* \"#utility.yul\":4178:4198   */\n      tag_131\n      jump\t// in\n    tag_146:\n        /* \"#utility.yul\":4173:4198   */\n      swap2\n      pop\n        /* \"#utility.yul\":4212:4232   */\n      tag_147\n        /* \"#utility.yul\":4230:4231   */\n      dup4\n        /* \"#utility.yul\":4212:4232   */\n      tag_131\n      jump\t// in\n    tag_147:\n        /* \"#utility.yul\":4207:4232   */\n      swap3\n      pop\n        /* \"#utility.yul\":4400:4401   */\n      dup2\n        /* \"#utility.yul\":4332:4398   */\n      0xffffffffffffffffffffffffffffffffffffffffffffffffffffffffffffffff\n        /* \"#utility.yul\":4328:4402   */\n      div\n        /* \"#utility.yul\":4325:4326   */\n      dup4\n        /* \"#utility.yul\":4322:4403   */\n      gt\n        /* \"#utility.yul\":4317:4318   */\n      dup3\n        /* \"#utility.yul\":4310:4319   */\n      iszero\n        /* \"#utility.yul\":4303:4320   */\n      iszero\n        /* \"#utility.yul\":4299:4404   */\n      and\n        /* \"#utility.yul\":4296:4427   */\n      iszero\n      tag_148\n      jumpi\n        /* \"#utility.yul\":4407:4425   */\n      tag_149\n      tag_150\n      jump\t// in\n    tag_149:\n        /* \"#utility.yul\":4296:4427   */\n    tag_148:\n        /* \"#utility.yul\":4455:4456   */\n      dup3\n        /* \"#utility.yul\":4452:4453   */\n      dup3\n        /* \"#utility.yul\":4448:4457   */\n      mul\n        /* \"#utility.yul\":4437:4457   */\n      swap1\n      pop\n        /* \"#utility.yul\":4115:4463   */\n      swap3\n      swap2\n      pop\n      pop\n      jump\t// out\n        /* \"#utility.yul\":4469:4598   */\n    tag_151:\n        /* \"#utility.yul\":4515:4522   */\n      0x00\n        /* \"#utility.yul\":4544:4549   */\n      dup2\n        /* \"#utility.yul\":4533:4549   */\n      swap1\n      pop\n        /* \"#utility.yul\":4550:4592   */\n      tag_153\n        /* \"#utility.yul\":4586:4591   */\n      dup3\n        /* \"#utility.yul\":4550:4592   */\n      tag_154\n      jump\t// in\n    tag_153:\n        /* \"#utility.yul\":4469:4598   */\n      swap2\n      swap1\n      pop\n      jump\t// out\n        /* \"#utility.yul\":4604:4681   */\n    tag_131:\n        /* \"#utility.yul\":4641:4648   */\n      0x00\n        /* \"#utility.yul\":4670:4675   */\n      dup2\n        /* \"#utility.yul\":4659:4675   */\n      swap1\n      pop\n        /* \"#utility.yul\":4604:4681   */\n      swap2\n      swap1\n      pop\n      jump\t// out\n        /* \"#utility.yul\":4687:4816   */\n    tag_106:\n        /* \"#utility.yul\":4744:4753   */\n      0x00\n        /* \"#utility.yul\":4777:4810   */\n      tag_157\n        /* \"#utility.yul\":4804:4809   */\n      dup3\n        /* \"#utility.yul\":4777:4810   */\n      tag_151\n      jump\t// in\n    tag_157:\n        /* \"#utility.yul\":4764:4810   */\n      swap1\n      pop\n        /* \"#utility.yul\":4687:4816   */\n      swap2\n      swap1\n      pop\n      jump\t// out\n        /* \"#utility.yul\":4822:5002   */\n    tag_150:\n        /* \"#utility.yul\":4870:4947   */\n      0x4e487b7100000000000000000000000000000000000000000000000000000000\n        /* \"#utility.yul\":4867:4868   */\n      0x00\n        /* \"#utility.yul\":4860:4948   */\n      mstore\n        /* \"#utility.yul\":4967:4971   */\n      0x11\n        /* \"#utility.yul\":4964:4965   */\n      0x04\n        /* \"#utility.yul\":4957:4972   */\n      mstore\n        /* \"#utility.yul\":4991:4995   */\n      0x24\n        /* \"#utility.yul\":4988:4989   */\n      0x00\n        /* \"#utility.yul\":4981:4996   */\n      revert\n        /* \"#utility.yul\":5008:5188   */\n    tag_42:\n        /* \"#utility.yul\":5056:5133   */\n      0x4e487b7100000000000000000000000000000000000000000000000000000000\n        /* \"#utility.yul\":5053:5054   */\n      0x00\n        /* \"#utility.yul\":5046:5134   */\n      mstore\n        /* \"#utility.yul\":5153:5157   */\n      0x21\n        /* \"#utility.yul\":5150:5151   */\n      0x04\n        /* \"#utility.yul\":5143:5158   */\n      mstore\n        /* \"#utility.yul\":5177:5181   */\n      0x24\n        /* \"#utility.yul\":5174:5175   */\n      0x00\n        /* \"#utility.yul\":5167:5182   */\n      revert\n        /* \"#utility.yul\":5194:5418   */\n    tag_112:\n        /* \"#utility.yul\":5334:5368   */\n      0x6f6e6c79206275797965722063616e2063616c6c20746869732066756e637469\n        /* \"#utility.yul\":5330:5331   */\n      0x00\n        /* \"#utility.yul\":5322:5328   */\n      dup3\n        /* \"#utility.yul\":5318:5332   */\n      add\n        /* \"#utility.yul\":5311:5369   */\n      mstore\n        /* \"#utility.yul\":5403:5410   */\n      0x6f6e202121000000000000000000000000000000000000000000000000000000\n        /* \"#utility.yul\":5398:5400   */\n      0x20\n        /* \"#utility.yul\":5390:5396   */\n      dup3\n        /* \"#utility.yul\":5386:5401   */\n      add\n        /* \"#utility.yul\":5379:5411   */\n      mstore\n        /* \"#utility.yul\":5194:5418   */\n      pop\n      jump\t// out\n        /* \"#utility.yul\":5424:5596   */\n    tag_117:\n        /* \"#utility.yul\":5564:5588   */\n      0x636f6e646974696f6e206973206e6f7420747275652100000000000000000000\n        /* \"#utility.yul\":5560:5561   */\n      0x00\n        /* \"#utility.yul\":5552:5558   */\n      dup3\n        /* \"#utility.yul\":5548:5562   */\n      add\n        /* \"#utility.yul\":5541:5589   */\n      mstore\n        /* \"#utility.yul\":5424:5596   */\n      pop\n      jump\t// out\n        /* \"#utility.yul\":5602:5826   */\n    tag_122:\n        /* \"#utility.yul\":5742:5776   */\n      0x6f6e6c792073656c6c65722063616e2063616c6c20746869732066756e637469\n        /* \"#utility.yul\":5738:5739   */\n      0x00\n        /* \"#utility.yul\":5730:5736   */\n      dup3\n        /* \"#utility.yul\":5726:5740   */\n      add\n        /* \"#utility.yul\":5719:5777   */\n      mstore\n        /* \"#utility.yul\":5811:5818   */\n      0x6f6e202121000000000000000000000000000000000000000000000000000000\n        /* \"#utility.yul\":5806:5808   */\n      0x20\n        /* \"#utility.yul\":5798:5804   */\n      dup3\n        /* \"#utility.yul\":5794:5809   */\n      add\n        /* \"#utility.yul\":5787:5819   */\n      mstore\n        /* \"#utility.yul\":5602:5826   */\n      pop\n      jump\t// out\n        /* \"#utility.yul\":5832:5995   */\n    tag_127:\n        /* \"#utility.yul\":5972:5987   */\n      0x696e76616c696420737461746500000000000000000000000000000000000000\n        /* \"#utility.yul\":5968:5969   */\n      0x00\n        /* \"#utility.yul\":5960:5966   */\n      dup3\n        /* \"#utility.yul\":5956:5970   */\n      add\n        /* \"#utility.yul\":5949:5988   */\n      mstore\n        /* \"#utility.yul\":5832:5995   */\n      pop\n      jump\t// out\n        /* \"#utility.yul\":6001:6115   */\n    tag_154:\n        /* \"#utility.yul\":6083:6084   */\n      0x04\n        /* \"#utility.yul\":6076:6081   */\n      dup2\n        /* \"#utility.yul\":6073:6085   */\n      lt\n        /* \"#utility.yul\":6063:6109   */\n      tag_165\n      jumpi\n        /* \"#utility.yul\":6089:6107   */\n      tag_166\n      tag_42\n      jump\t// in\n    tag_166:\n        /* \"#utility.yul\":6063:6109   */\n    tag_165:\n        /* \"#utility.yul\":6001:6115   */\n      pop\n      jump\t// out\n\n    auxdata: 0xa264697066735822122014ffe01df33653953afefd841060eaab39599853aed2514ac12f5acf315fdf4564736f6c63430008070033\n}\n",
				"bytecode": {
					"linkReferences": {},
					"object": "60806040526000600260146101000a81548160ff021916908360038111156200002d576200002c6200023e565b5b021790555033600160006101000a81548173ffffffffffffffffffffffffffffffffffffffff021916908373ffffffffffffffffffffffffffffffffffffffff1602179055506002346200008291906200013d565b6000819055503460005460026200009a919062000175565b14620000dd576040517f08c379a0000000000000000000000000000000000000000000000000000000008152600401620000d4906200010a565b60405180910390fd5b62000296565b6000620000f26014836200012c565b9150620000ff826200026d565b602082019050919050565b600060208201905081810360008301526200012581620000e3565b9050919050565b600082825260208201905092915050565b60006200014a82620001d6565b91506200015783620001d6565b9250826200016a57620001696200020f565b5b828204905092915050565b60006200018282620001d6565b91506200018f83620001d6565b9250817fffffffffffffffffffffffffffffffffffffffffffffffffffffffffffffffff0483118215151615620001cb57620001ca620001e0565b5b828202905092915050565b6000819050919050565b7f4e487b7100000000000000000000000000000000000000000000000000000000600052601160045260246000fd5b7f4e487b7100000000000000000000000000000000000000000000000000000000600052601260045260246000fd5b7f4e487b7100000000000000000000000000000000000000000000000000000000600052602160045260246000fd5b7f76616c7565206973206e6f74206576656e212120000000000000000000000000600082015250565b610bc980620002a66000396000f3fe6080604052600436106100705760003560e01c8063c7981b1b1161004e578063c7981b1b146100e2578063e0e70bc4146100f9578063efff5e2f14610103578063f40da3911461012e57610070565b80630c3f6acf1461007557806335a063b4146100a05780633fa4f245146100b7575b600080fd5b34801561008157600080fd5b5061008a610145565b60405161009791906108e1565b60405180910390f35b3480156100ac57600080fd5b506100b5610158565b005b3480156100c357600080fd5b506100cc610322565b6040516100d9919061097c565b60405180910390f35b3480156100ee57600080fd5b506100f7610328565b005b610101610500565b005b34801561010f57600080fd5b50610118610664565b604051610125919061097c565b60405180910390f35b34801561013a57600080fd5b5061014361066c565b005b600260149054906101000a900460ff1681565b600160009054906101000a900473ffffffffffffffffffffffffffffffffffffffff1673ffffffffffffffffffffffffffffffffffffffff163373ffffffffffffffffffffffffffffffffffffffff16146101e8576040517f08c379a00000000000000000000000000000000000000000000000000000000081526004016101df9061093c565b60405180910390fd5b60008060038111156101fd576101fc610a60565b5b600260149054906101000a900460ff16600381111561021f5761021e610a60565b5b1461025f576040517f08c379a00000000000000000000000000000000000000000000000000000000081526004016102569061095c565b60405180910390fd5b6003600260146101000a81548160ff0219169083600381111561028557610284610a60565b5b0217905550600160009054906101000a900473ffffffffffffffffffffffffffffffffffffffff1673ffffffffffffffffffffffffffffffffffffffff166108fc479081150290604051600060405180830381858888f193505050501580156102f2573d6000803e3d6000fd5b507f72c874aeff0b183a56e2b79c71b46e1aed4dee5e09862134b8821ba2fddbf8bf60405160405180910390a150565b60005481565b600160009054906101000a900473ffffffffffffffffffffffffffffffffffffffff1673ffffffffffffffffffffffffffffffffffffffff163373ffffffffffffffffffffffffffffffffffffffff16146103b8576040517f08c379a00000000000000000000000000000000000000000000000000000000081526004016103af9061093c565b60405180910390fd5b60028060038111156103cd576103cc610a60565b5b600260149054906101000a900460ff1660038111156103ef576103ee610a60565b5b1461042f576040517f08c379a00000000000000000000000000000000000000000000000000000000081526004016104269061095c565b60405180910390fd5b6003600260146101000a81548160ff0219169083600381111561045557610454610a60565b5b0217905550600160009054906101000a900473ffffffffffffffffffffffffffffffffffffffff1673ffffffffffffffffffffffffffffffffffffffff166108fc60005460036104a591906109a8565b9081150290604051600060405180830381858888f193505050501580156104d0573d6000803e3d6000fd5b507ffda69c32bcfdba840a167777906b173b607eb8b4d8853b97a80d26e613d858db60405160405180910390a150565b600080600381111561051557610514610a60565b5b600260149054906101000a900460ff16600381111561053757610536610a60565b5b14610577576040517f08c379a000000000000000000000000000000000000000000000000000000000815260040161056e9061095c565b60405180910390fd5b600054600261058691906109a8565b3414806105c8576040517f08c379a00000000000000000000000000000000000000000000000000000000081526004016105bf9061091c565b60405180910390fd5b6001600260146101000a81548160ff021916908360038111156105ee576105ed610a60565b5b021790555033600260006101000a81548173ffffffffffffffffffffffffffffffffffffffff021916908373ffffffffffffffffffffffffffffffffffffffff1602179055507fd5d55c8a68912e9a110618df8d5e2e83b8d83211c57a8ddd1203df92885dc88160405160405180910390a15050565b600047905090565b600260009054906101000a900473ffffffffffffffffffffffffffffffffffffffff1673ffffffffffffffffffffffffffffffffffffffff163373ffffffffffffffffffffffffffffffffffffffff16146106fc576040517f08c379a00000000000000000000000000000000000000000000000000000000081526004016106f3906108fc565b60405180910390fd5b600180600381111561071157610710610a60565b5b600260149054906101000a900460ff16600381111561073357610732610a60565b5b14610773576040517f08c379a000000000000000000000000000000000000000000000000000000000815260040161076a9061095c565b60405180910390fd5b60028060146101000a81548160ff0219169083600381111561079857610797610a60565b5b0217905550600260009054906101000a900473ffffffffffffffffffffffffffffffffffffffff1673ffffffffffffffffffffffffffffffffffffffff166108fc6000549081150290604051600060405180830381858888f19350505050158015610807573d6000803e3d6000fd5b507fc87402942a27c7f22a1f5e0283a6df8e8b7dde3e043e07185de690464fe9b24060405160405180910390a150565b61084081610a1f565b82525050565b6000610853602583610997565b915061085e82610a8f565b604082019050919050565b6000610876601683610997565b915061088182610ade565b602082019050919050565b6000610899602583610997565b91506108a482610b07565b604082019050919050565b60006108bc600d83610997565b91506108c782610b56565b602082019050919050565b6108db81610a15565b82525050565b60006020820190506108f66000830184610837565b92915050565b6000602082019050818103600083015261091581610846565b9050919050565b6000602082019050818103600083015261093581610869565b9050919050565b600060208201905081810360008301526109558161088c565b9050919050565b60006020820190508181036000830152610975816108af565b9050919050565b600060208201905061099160008301846108d2565b92915050565b600082825260208201905092915050565b60006109b382610a15565b91506109be83610a15565b9250817fffffffffffffffffffffffffffffffffffffffffffffffffffffffffffffffff04831182151516156109f7576109f6610a31565b5b828202905092915050565b6000819050610a1082610b7f565b919050565b6000819050919050565b6000610a2a82610a02565b9050919050565b7f4e487b7100000000000000000000000000000000000000000000000000000000600052601160045260246000fd5b7f4e487b7100000000000000000000000000000000000000000000000000000000600052602160045260246000fd5b7f6f6e6c79206275797965722063616e2063616c6c20746869732066756e63746960008201527f6f6e202121000000000000000000000000000000000000000000000000000000602082015250565b7f636f6e646974696f6e206973206e6f7420747275652100000000000000000000600082015250565b7f6f6e6c792073656c6c65722063616e2063616c6c20746869732066756e63746960008201527f6f6e202121000000000000000000000000000000000000000000000000000000602082015250565b7f696e76616c696420737461746500000000000000000000000000000000000000600082015250565b60048110610b9057610b8f610a60565b5b5056fea264697066735822122014ffe01df33653953afefd841060eaab39599853aed2514ac12f5acf315fdf4564736f6c63430008070033",
					"opcodes": "PUSH1 0x80 PUSH1 0x40 MSTORE PUSH1 0x0 PUSH1 0x2 PUSH1 0x14 PUSH2 0x100 EXP DUP2 SLOAD DUP2 PUSH1 0xFF MUL NOT AND SWAP1 DUP4 PUSH1 0x3 DUP2 GT ISZERO PUSH3 0x2D JUMPI PUSH3 0x2C PUSH3 0x23E JUMP JUMPDEST JUMPDEST MUL OR SWAP1 SSTORE POP CALLER PUSH1 0x1 PUSH1 0x0 PUSH2 0x100 EXP DUP2 SLOAD DUP2 PUSH20 0xFFFFFFFFFFFFFFFFFFFFFFFFFFFFFFFFFFFFFFFF MUL NOT AND SWAP1 DUP4 PUSH20 0xFFFFFFFFFFFFFFFFFFFFFFFFFFFFFFFFFFFFFFFF AND MUL OR SWAP1 SSTORE POP PUSH1 0x2 CALLVALUE PUSH3 0x82 SWAP2 SWAP1 PUSH3 0x13D JUMP JUMPDEST PUSH1 0x0 DUP2 SWAP1 SSTORE POP CALLVALUE PUSH1 0x0 SLOAD PUSH1 0x2 PUSH3 0x9A SWAP2 SWAP1 PUSH3 0x175 JUMP JUMPDEST EQ PUSH3 0xDD JUMPI PUSH1 0x40 MLOAD PUSH32 0x8C379A000000000000000000000000000000000000000000000000000000000 DUP2 MSTORE PUSH1 0x4 ADD PUSH3 0xD4 SWAP1 PUSH3 0x10A JUMP JUMPDEST PUSH1 0x40 MLOAD DUP1 SWAP2 SUB SWAP1 REVERT JUMPDEST PUSH3 0x296 JUMP JUMPDEST PUSH1 0x0 PUSH3 0xF2 PUSH1 0x14 DUP4 PUSH3 0x12C JUMP JUMPDEST SWAP2 POP PUSH3 0xFF DUP3 PUSH3 0x26D JUMP JUMPDEST PUSH1 0x20 DUP3 ADD SWAP1 POP SWAP2 SWAP1 POP JUMP JUMPDEST PUSH1 0x0 PUSH1 0x20 DUP3 ADD SWAP1 POP DUP2 DUP2 SUB PUSH1 0x0 DUP4 ADD MSTORE PUSH3 0x125 DUP2 PUSH3 0xE3 JUMP JUMPDEST SWAP1 POP SWAP2 SWAP1 POP JUMP JUMPDEST PUSH1 0x0 DUP3 DUP3 MSTORE PUSH1 0x20 DUP3 ADD SWAP1 POP SWAP3 SWAP2 POP POP JUMP JUMPDEST PUSH1 0x0 PUSH3 0x14A DUP3 PUSH3 0x1D6 JUMP JUMPDEST SWAP2 POP PUSH3 0x157 DUP4 PUSH3 0x1D6 JUMP JUMPDEST SWAP3 POP DUP3 PUSH3 0x16A JUMPI PUSH3 0x169 PUSH3 0x20F JUMP JUMPDEST JUMPDEST DUP3 DUP3 DIV SWAP1 POP SWAP3 SWAP2 POP POP JUMP JUMPDEST PUSH1 0x0 PUSH3 0x182 DUP3 PUSH3 0x1D6 JUMP JUMPDEST SWAP2 POP PUSH3 0x18F DUP4 PUSH3 0x1D6 JUMP JUMPDEST SWAP3 POP DUP2 PUSH32 0xFFFFFFFFFFFFFFFFFFFFFFFFFFFFFFFFFFFFFFFFFFFFFFFFFFFFFFFFFFFFFFFF DIV DUP4 GT DUP3 ISZERO ISZERO AND ISZERO PUSH3 0x1CB JUMPI PUSH3 0x1CA PUSH3 0x1E0 JUMP JUMPDEST JUMPDEST DUP3 DUP3 MUL SWAP1 POP SWAP3 SWAP2 POP POP JUMP JUMPDEST PUSH1 0x0 DUP2 SWAP1 POP SWAP2 SWAP1 POP JUMP JUMPDEST PUSH32 0x4E487B7100000000000000000000000000000000000000000000000000000000 PUSH1 0x0 MSTORE PUSH1 0x11 PUSH1 0x4 MSTORE PUSH1 0x24 PUSH1 0x0 REVERT JUMPDEST PUSH32 0x4E487B7100000000000000000000000000000000000000000000000000000000 PUSH1 0x0 MSTORE PUSH1 0x12 PUSH1 0x4 MSTORE PUSH1 0x24 PUSH1 0x0 REVERT JUMPDEST PUSH32 0x4E487B7100000000000000000000000000000000000000000000000000000000 PUSH1 0x0 MSTORE PUSH1 0x21 PUSH1 0x4 MSTORE PUSH1 0x24 PUSH1 0x0 REVERT JUMPDEST PUSH32 0x76616C7565206973206E6F74206576656E212120000000000000000000000000 PUSH1 0x0 DUP3 ADD MSTORE POP JUMP JUMPDEST PUSH2 0xBC9 DUP1 PUSH3 0x2A6 PUSH1 0x0 CODECOPY PUSH1 0x0 RETURN INVALID PUSH1 0x80 PUSH1 0x40 MSTORE PUSH1 0x4 CALLDATASIZE LT PUSH2 0x70 JUMPI PUSH1 0x0 CALLDATALOAD PUSH1 0xE0 SHR DUP1 PUSH4 0xC7981B1B GT PUSH2 0x4E JUMPI DUP1 PUSH4 0xC7981B1B EQ PUSH2 0xE2 JUMPI DUP1 PUSH4 0xE0E70BC4 EQ PUSH2 0xF9 JUMPI DUP1 PUSH4 0xEFFF5E2F EQ PUSH2 0x103 JUMPI DUP1 PUSH4 0xF40DA391 EQ PUSH2 0x12E JUMPI PUSH2 0x70 JUMP JUMPDEST DUP1 PUSH4 0xC3F6ACF EQ PUSH2 0x75 JUMPI DUP1 PUSH4 0x35A063B4 EQ PUSH2 0xA0 JUMPI DUP1 PUSH4 0x3FA4F245 EQ PUSH2 0xB7 JUMPI JUMPDEST PUSH1 0x0 DUP1 REVERT JUMPDEST CALLVALUE DUP1 ISZERO PUSH2 0x81 JUMPI PUSH1 0x0 DUP1 REVERT JUMPDEST POP PUSH2 0x8A PUSH2 0x145 JUMP JUMPDEST PUSH1 0x40 MLOAD PUSH2 0x97 SWAP2 SWAP1 PUSH2 0x8E1 JUMP JUMPDEST PUSH1 0x40 MLOAD DUP1 SWAP2 SUB SWAP1 RETURN JUMPDEST CALLVALUE DUP1 ISZERO PUSH2 0xAC JUMPI PUSH1 0x0 DUP1 REVERT JUMPDEST POP PUSH2 0xB5 PUSH2 0x158 JUMP JUMPDEST STOP JUMPDEST CALLVALUE DUP1 ISZERO PUSH2 0xC3 JUMPI PUSH1 0x0 DUP1 REVERT JUMPDEST POP PUSH2 0xCC PUSH2 0x322 JUMP JUMPDEST PUSH1 0x40 MLOAD PUSH2 0xD9 SWAP2 SWAP1 PUSH2 0x97C JUMP JUMPDEST PUSH1 0x40 MLOAD DUP1 SWAP2 SUB SWAP1 RETURN JUMPDEST CALLVALUE DUP1 ISZERO PUSH2 0xEE JUMPI PUSH1 0x0 DUP1 REVERT JUMPDEST POP PUSH2 0xF7 PUSH2 0x328 JUMP JUMPDEST STOP JUMPDEST PUSH2 0x101 PUSH2 0x500 JUMP JUMPDEST STOP JUMPDEST CALLVALUE DUP1 ISZERO PUSH2 0x10F JUMPI PUSH1 0x0 DUP1 REVERT JUMPDEST POP PUSH2 0x118 PUSH2 0x664 JUMP JUMPDEST PUSH1 0x40 MLOAD PUSH2 0x125 SWAP2 SWAP1 PUSH2 0x97C JUMP JUMPDEST PUSH1 0x40 MLOAD DUP1 SWAP2 SUB SWAP1 RETURN JUMPDEST CALLVALUE DUP1 ISZERO PUSH2 0x13A JUMPI PUSH1 0x0 DUP1 REVERT JUMPDEST POP PUSH2 0x143 PUSH2 0x66C JUMP JUMPDEST STOP JUMPDEST PUSH1 0x2 PUSH1 0x14 SWAP1 SLOAD SWAP1 PUSH2 0x100 EXP SWAP1 DIV PUSH1 0xFF AND DUP2 JUMP JUMPDEST PUSH1 0x1 PUSH1 0x0 SWAP1 SLOAD SWAP1 PUSH2 0x100 EXP SWAP1 DIV PUSH20 0xFFFFFFFFFFFFFFFFFFFFFFFFFFFFFFFFFFFFFFFF AND PUSH20 0xFFFFFFFFFFFFFFFFFFFFFFFFFFFFFFFFFFFFFFFF AND CALLER PUSH20 0xFFFFFFFFFFFFFFFFFFFFFFFFFFFFFFFFFFFFFFFF AND EQ PUSH2 0x1E8 JUMPI PUSH1 0x40 MLOAD PUSH32 0x8C379A000000000000000000000000000000000000000000000000000000000 DUP2 MSTORE PUSH1 0x4 ADD PUSH2 0x1DF SWAP1 PUSH2 0x93C JUMP JUMPDEST PUSH1 0x40 MLOAD DUP1 SWAP2 SUB SWAP1 REVERT JUMPDEST PUSH1 0x0 DUP1 PUSH1 0x3 DUP2 GT ISZERO PUSH2 0x1FD JUMPI PUSH2 0x1FC PUSH2 0xA60 JUMP JUMPDEST JUMPDEST PUSH1 0x2 PUSH1 0x14 SWAP1 SLOAD SWAP1 PUSH2 0x100 EXP SWAP1 DIV PUSH1 0xFF AND PUSH1 0x3 DUP2 GT ISZERO PUSH2 0x21F JUMPI PUSH2 0x21E PUSH2 0xA60 JUMP JUMPDEST JUMPDEST EQ PUSH2 0x25F JUMPI PUSH1 0x40 MLOAD PUSH32 0x8C379A000000000000000000000000000000000000000000000000000000000 DUP2 MSTORE PUSH1 0x4 ADD PUSH2 0x256 SWAP1 PUSH2 0x95C JUMP JUMPDEST PUSH1 0x40 MLOAD DUP1 SWAP2 SUB SWAP1 REVERT JUMPDEST PUSH1 0x3 PUSH1 0x2 PUSH1 0x14 PUSH2 0x100 EXP DUP2 SLOAD DUP2 PUSH1 0xFF MUL NOT AND SWAP1 DUP4 PUSH1 0x3 DUP2 GT ISZERO PUSH2 0x285 JUMPI PUSH2 0x284 PUSH2 0xA60 JUMP JUMPDEST JUMPDEST MUL OR SWAP1 SSTORE POP PUSH1 0x1 PUSH1 0x0 SWAP1 SLOAD SWAP1 PUSH2 0x100 EXP SWAP1 DIV PUSH20 0xFFFFFFFFFFFFFFFFFFFFFFFFFFFFFFFFFFFFFFFF AND PUSH20 0xFFFFFFFFFFFFFFFFFFFFFFFFFFFFFFFFFFFFFFFF AND PUSH2 0x8FC SELFBALANCE SWAP1 DUP2 ISZERO MUL SWAP1 PUSH1 0x40 MLOAD PUSH1 0x0 PUSH1 0x40 MLOAD DUP1 DUP4 SUB DUP2 DUP6 DUP9 DUP9 CALL SWAP4 POP POP POP POP ISZERO DUP1 ISZERO PUSH2 0x2F2 JUMPI RETURNDATASIZE PUSH1 0x0 DUP1 RETURNDATACOPY RETURNDATASIZE PUSH1 0x0 REVERT JUMPDEST POP PUSH32 0x72C874AEFF0B183A56E2B79C71B46E1AED4DEE5E09862134B8821BA2FDDBF8BF PUSH1 0x40 MLOAD PUSH1 0x40 MLOAD DUP1 SWAP2 SUB SWAP1 LOG1 POP JUMP JUMPDEST PUSH1 0x0 SLOAD DUP2 JUMP JUMPDEST PUSH1 0x1 PUSH1 0x0 SWAP1 SLOAD SWAP1 PUSH2 0x100 EXP SWAP1 DIV PUSH20 0xFFFFFFFFFFFFFFFFFFFFFFFFFFFFFFFFFFFFFFFF AND PUSH20 0xFFFFFFFFFFFFFFFFFFFFFFFFFFFFFFFFFFFFFFFF AND CALLER PUSH20 0xFFFFFFFFFFFFFFFFFFFFFFFFFFFFFFFFFFFFFFFF AND EQ PUSH2 0x3B8 JUMPI PUSH1 0x40 MLOAD PUSH32 0x8C379A000000000000000000000000000000000000000000000000000000000 DUP2 MSTORE PUSH1 0x4 ADD PUSH2 0x3AF SWAP1 PUSH2 0x93C JUMP JUMPDEST PUSH1 0x40 MLOAD DUP1 SWAP2 SUB SWAP1 REVERT JUMPDEST PUSH1 0x2 DUP1 PUSH1 0x3 DUP2 GT ISZERO PUSH2 0x3CD JUMPI PUSH2 0x3CC PUSH2 0xA60 JUMP JUMPDEST JUMPDEST PUSH1 0x2 PUSH1 0x14 SWAP1 SLOAD SWAP1 PUSH2 0x100 EXP SWAP1 DIV PUSH1 0xFF AND PUSH1 0x3 DUP2 GT ISZERO PUSH2 0x3EF JUMPI PUSH2 0x3EE PUSH2 0xA60 JUMP JUMPDEST JUMPDEST EQ PUSH2 0x42F JUMPI PUSH1 0x40 MLOAD PUSH32 0x8C379A000000000000000000000000000000000000000000000000000000000 DUP2 MSTORE PUSH1 0x4 ADD PUSH2 0x426 SWAP1 PUSH2 0x95C JUMP JUMPDEST PUSH1 0x40 MLOAD DUP1 SWAP2 SUB SWAP1 REVERT JUMPDEST PUSH1 0x3 PUSH1 0x2 PUSH1 0x14 PUSH2 0x100 EXP DUP2 SLOAD DUP2 PUSH1 0xFF MUL NOT AND SWAP1 DUP4 PUSH1 0x3 DUP2 GT ISZERO PUSH2 0x455 JUMPI PUSH2 0x454 PUSH2 0xA60 JUMP JUMPDEST JUMPDEST MUL OR SWAP1 SSTORE POP PUSH1 0x1 PUSH1 0x0 SWAP1 SLOAD SWAP1 PUSH2 0x100 EXP SWAP1 DIV PUSH20 0xFFFFFFFFFFFFFFFFFFFFFFFFFFFFFFFFFFFFFFFF AND PUSH20 0xFFFFFFFFFFFFFFFFFFFFFFFFFFFFFFFFFFFFFFFF AND PUSH2 0x8FC PUSH1 0x0 SLOAD PUSH1 0x3 PUSH2 0x4A5 SWAP2 SWAP1 PUSH2 0x9A8 JUMP JUMPDEST SWAP1 DUP2 ISZERO MUL SWAP1 PUSH1 0x40 MLOAD PUSH1 0x0 PUSH1 0x40 MLOAD DUP1 DUP4 SUB DUP2 DUP6 DUP9 DUP9 CALL SWAP4 POP POP POP POP ISZERO DUP1 ISZERO PUSH2 0x4D0 JUMPI RETURNDATASIZE PUSH1 0x0 DUP1 RETURNDATACOPY RETURNDATASIZE PUSH1 0x0 REVERT JUMPDEST POP PUSH32 0xFDA69C32BCFDBA840A167777906B173B607EB8B4D8853B97A80D26E613D858DB PUSH1 0x40 MLOAD PUSH1 0x40 MLOAD DUP1 SWAP2 SUB SWAP1 LOG1 POP JUMP JUMPDEST PUSH1 0x0 DUP1 PUSH1 0x3 DUP2 GT ISZERO PUSH2 0x515 JUMPI PUSH2 0x514 PUSH2 0xA60 JUMP JUMPDEST JUMPDEST PUSH1 0x2 PUSH1 0x14 SWAP1 SLOAD SWAP1 PUSH2 0x100 EXP SWAP1 DIV PUSH1 0xFF AND PUSH1 0x3 DUP2 GT ISZERO PUSH2 0x537 JUMPI PUSH2 0x536 PUSH2 0xA60 JUMP JUMPDEST JUMPDEST EQ PUSH2 0x577 JUMPI PUSH1 0x40 MLOAD PUSH32 0x8C379A000000000000000000000000000000000000000000000000000000000 DUP2 MSTORE PUSH1 0x4 ADD PUSH2 0x56E SWAP1 PUSH2 0x95C JUMP JUMPDEST PUSH1 0x40 MLOAD DUP1 SWAP2 SUB SWAP1 REVERT JUMPDEST PUSH1 0x0 SLOAD PUSH1 0x2 PUSH2 0x586 SWAP2 SWAP1 PUSH2 0x9A8 JUMP JUMPDEST CALLVALUE EQ DUP1 PUSH2 0x5C8 JUMPI PUSH1 0x40 MLOAD PUSH32 0x8C379A000000000000000000000000000000000000000000000000000000000 DUP2 MSTORE PUSH1 0x4 ADD PUSH2 0x5BF SWAP1 PUSH2 0x91C JUMP JUMPDEST PUSH1 0x40 MLOAD DUP1 SWAP2 SUB SWAP1 REVERT JUMPDEST PUSH1 0x1 PUSH1 0x2 PUSH1 0x14 PUSH2 0x100 EXP DUP2 SLOAD DUP2 PUSH1 0xFF MUL NOT AND SWAP1 DUP4 PUSH1 0x3 DUP2 GT ISZERO PUSH2 0x5EE JUMPI PUSH2 0x5ED PUSH2 0xA60 JUMP JUMPDEST JUMPDEST MUL OR SWAP1 SSTORE POP CALLER PUSH1 0x2 PUSH1 0x0 PUSH2 0x100 EXP DUP2 SLOAD DUP2 PUSH20 0xFFFFFFFFFFFFFFFFFFFFFFFFFFFFFFFFFFFFFFFF MUL NOT AND SWAP1 DUP4 PUSH20 0xFFFFFFFFFFFFFFFFFFFFFFFFFFFFFFFFFFFFFFFF AND MUL OR SWAP1 SSTORE POP PUSH32 0xD5D55C8A68912E9A110618DF8D5E2E83B8D83211C57A8DDD1203DF92885DC881 PUSH1 0x40 MLOAD PUSH1 0x40 MLOAD DUP1 SWAP2 SUB SWAP1 LOG1 POP POP JUMP JUMPDEST PUSH1 0x0 SELFBALANCE SWAP1 POP SWAP1 JUMP JUMPDEST PUSH1 0x2 PUSH1 0x0 SWAP1 SLOAD SWAP1 PUSH2 0x100 EXP SWAP1 DIV PUSH20 0xFFFFFFFFFFFFFFFFFFFFFFFFFFFFFFFFFFFFFFFF AND PUSH20 0xFFFFFFFFFFFFFFFFFFFFFFFFFFFFFFFFFFFFFFFF AND CALLER PUSH20 0xFFFFFFFFFFFFFFFFFFFFFFFFFFFFFFFFFFFFFFFF AND EQ PUSH2 0x6FC JUMPI PUSH1 0x40 MLOAD PUSH32 0x8C379A000000000000000000000000000000000000000000000000000000000 DUP2 MSTORE PUSH1 0x4 ADD PUSH2 0x6F3 SWAP1 PUSH2 0x8FC JUMP JUMPDEST PUSH1 0x40 MLOAD DUP1 SWAP2 SUB SWAP1 REVERT JUMPDEST PUSH1 0x1 DUP1 PUSH1 0x3 DUP2 GT ISZERO PUSH2 0x711 JUMPI PUSH2 0x710 PUSH2 0xA60 JUMP JUMPDEST JUMPDEST PUSH1 0x2 PUSH1 0x14 SWAP1 SLOAD SWAP1 PUSH2 0x100 EXP SWAP1 DIV PUSH1 0xFF AND PUSH1 0x3 DUP2 GT ISZERO PUSH2 0x733 JUMPI PUSH2 0x732 PUSH2 0xA60 JUMP JUMPDEST JUMPDEST EQ PUSH2 0x773 JUMPI PUSH1 0x40 MLOAD PUSH32 0x8C379A000000000000000000000000000000000000000000000000000000000 DUP2 MSTORE PUSH1 0x4 ADD PUSH2 0x76A SWAP1 PUSH2 0x95C JUMP JUMPDEST PUSH1 0x40 MLOAD DUP1 SWAP2 SUB SWAP1 REVERT JUMPDEST PUSH1 0x2 DUP1 PUSH1 0x14 PUSH2 0x100 EXP DUP2 SLOAD DUP2 PUSH1 0xFF MUL NOT AND SWAP1 DUP4 PUSH1 0x3 DUP2 GT ISZERO PUSH2 0x798 JUMPI PUSH2 0x797 PUSH2 0xA60 JUMP JUMPDEST JUMPDEST MUL OR SWAP1 SSTORE POP PUSH1 0x2 PUSH1 0x0 SWAP1 SLOAD SWAP1 PUSH2 0x100 EXP SWAP1 DIV PUSH20 0xFFFFFFFFFFFFFFFFFFFFFFFFFFFFFFFFFFFFFFFF AND PUSH20 0xFFFFFFFFFFFFFFFFFFFFFFFFFFFFFFFFFFFFFFFF AND PUSH2 0x8FC PUSH1 0x0 SLOAD SWAP1 DUP2 ISZERO MUL SWAP1 PUSH1 0x40 MLOAD PUSH1 0x0 PUSH1 0x40 MLOAD DUP1 DUP4 SUB DUP2 DUP6 DUP9 DUP9 CALL SWAP4 POP POP POP POP ISZERO DUP1 ISZERO PUSH2 0x807 JUMPI RETURNDATASIZE PUSH1 0x0 DUP1 RETURNDATACOPY RETURNDATASIZE PUSH1 0x0 REVERT JUMPDEST POP PUSH32 0xC87402942A27C7F22A1F5E0283A6DF8E8B7DDE3E043E07185DE690464FE9B240 PUSH1 0x40 MLOAD PUSH1 0x40 MLOAD DUP1 SWAP2 SUB SWAP1 LOG1 POP JUMP JUMPDEST PUSH2 0x840 DUP2 PUSH2 0xA1F JUMP JUMPDEST DUP3 MSTORE POP POP JUMP JUMPDEST PUSH1 0x0 PUSH2 0x853 PUSH1 0x25 DUP4 PUSH2 0x997 JUMP JUMPDEST SWAP2 POP PUSH2 0x85E DUP3 PUSH2 0xA8F JUMP JUMPDEST PUSH1 0x40 DUP3 ADD SWAP1 POP SWAP2 SWAP1 POP JUMP JUMPDEST PUSH1 0x0 PUSH2 0x876 PUSH1 0x16 DUP4 PUSH2 0x997 JUMP JUMPDEST SWAP2 POP PUSH2 0x881 DUP3 PUSH2 0xADE JUMP JUMPDEST PUSH1 0x20 DUP3 ADD SWAP1 POP SWAP2 SWAP1 POP JUMP JUMPDEST PUSH1 0x0 PUSH2 0x899 PUSH1 0x25 DUP4 PUSH2 0x997 JUMP JUMPDEST SWAP2 POP PUSH2 0x8A4 DUP3 PUSH2 0xB07 JUMP JUMPDEST PUSH1 0x40 DUP3 ADD SWAP1 POP SWAP2 SWAP1 POP JUMP JUMPDEST PUSH1 0x0 PUSH2 0x8BC PUSH1 0xD DUP4 PUSH2 0x997 JUMP JUMPDEST SWAP2 POP PUSH2 0x8C7 DUP3 PUSH2 0xB56 JUMP JUMPDEST PUSH1 0x20 DUP3 ADD SWAP1 POP SWAP2 SWAP1 POP JUMP JUMPDEST PUSH2 0x8DB DUP2 PUSH2 0xA15 JUMP JUMPDEST DUP3 MSTORE POP POP JUMP JUMPDEST PUSH1 0x0 PUSH1 0x20 DUP3 ADD SWAP1 POP PUSH2 0x8F6 PUSH1 0x0 DUP4 ADD DUP5 PUSH2 0x837 JUMP JUMPDEST SWAP3 SWAP2 POP POP JUMP JUMPDEST PUSH1 0x0 PUSH1 0x20 DUP3 ADD SWAP1 POP DUP2 DUP2 SUB PUSH1 0x0 DUP4 ADD MSTORE PUSH2 0x915 DUP2 PUSH2 0x846 JUMP JUMPDEST SWAP1 POP SWAP2 SWAP1 POP JUMP JUMPDEST PUSH1 0x0 PUSH1 0x20 DUP3 ADD SWAP1 POP DUP2 DUP2 SUB PUSH1 0x0 DUP4 ADD MSTORE PUSH2 0x935 DUP2 PUSH2 0x869 JUMP JUMPDEST SWAP1 POP SWAP2 SWAP1 POP JUMP JUMPDEST PUSH1 0x0 PUSH1 0x20 DUP3 ADD SWAP1 POP DUP2 DUP2 SUB PUSH1 0x0 DUP4 ADD MSTORE PUSH2 0x955 DUP2 PUSH2 0x88C JUMP JUMPDEST SWAP1 POP SWAP2 SWAP1 POP JUMP JUMPDEST PUSH1 0x0 PUSH1 0x20 DUP3 ADD SWAP1 POP DUP2 DUP2 SUB PUSH1 0x0 DUP4 ADD MSTORE PUSH2 0x975 DUP2 PUSH2 0x8AF JUMP JUMPDEST SWAP1 POP SWAP2 SWAP1 POP JUMP JUMPDEST PUSH1 0x0 PUSH1 0x20 DUP3 ADD SWAP1 POP PUSH2 0x991 PUSH1 0x0 DUP4 ADD DUP5 PUSH2 0x8D2 JUMP JUMPDEST SWAP3 SWAP2 POP POP JUMP JUMPDEST PUSH1 0x0 DUP3 DUP3 MSTORE PUSH1 0x20 DUP3 ADD SWAP1 POP SWAP3 SWAP2 POP POP JUMP JUMPDEST PUSH1 0x0 PUSH2 0x9B3 DUP3 PUSH2 0xA15 JUMP JUMPDEST SWAP2 POP PUSH2 0x9BE DUP4 PUSH2 0xA15 JUMP JUMPDEST SWAP3 POP DUP2 PUSH32 0xFFFFFFFFFFFFFFFFFFFFFFFFFFFFFFFFFFFFFFFFFFFFFFFFFFFFFFFFFFFFFFFF DIV DUP4 GT DUP3 ISZERO ISZERO AND ISZERO PUSH2 0x9F7 JUMPI PUSH2 0x9F6 PUSH2 0xA31 JUMP JUMPDEST JUMPDEST DUP3 DUP3 MUL SWAP1 POP SWAP3 SWAP2 POP POP JUMP JUMPDEST PUSH1 0x0 DUP2 SWAP1 POP PUSH2 0xA10 DUP3 PUSH2 0xB7F JUMP JUMPDEST SWAP2 SWAP1 POP JUMP JUMPDEST PUSH1 0x0 DUP2 SWAP1 POP SWAP2 SWAP1 POP JUMP JUMPDEST PUSH1 0x0 PUSH2 0xA2A DUP3 PUSH2 0xA02 JUMP JUMPDEST SWAP1 POP SWAP2 SWAP1 POP JUMP JUMPDEST PUSH32 0x4E487B7100000000000000000000000000000000000000000000000000000000 PUSH1 0x0 MSTORE PUSH1 0x11 PUSH1 0x4 MSTORE PUSH1 0x24 PUSH1 0x0 REVERT JUMPDEST PUSH32 0x4E487B7100000000000000000000000000000000000000000000000000000000 PUSH1 0x0 MSTORE PUSH1 0x21 PUSH1 0x4 MSTORE PUSH1 0x24 PUSH1 0x0 REVERT JUMPDEST PUSH32 0x6F6E6C79206275797965722063616E2063616C6C20746869732066756E637469 PUSH1 0x0 DUP3 ADD MSTORE PUSH32 0x6F6E202121000000000000000000000000000000000000000000000000000000 PUSH1 0x20 DUP3 ADD MSTORE POP JUMP JUMPDEST PUSH32 0x636F6E646974696F6E206973206E6F7420747275652100000000000000000000 PUSH1 0x0 DUP3 ADD MSTORE POP JUMP JUMPDEST PUSH32 0x6F6E6C792073656C6C65722063616E2063616C6C20746869732066756E637469 PUSH1 0x0 DUP3 ADD MSTORE PUSH32 0x6F6E202121000000000000000000000000000000000000000000000000000000 PUSH1 0x20 DUP3 ADD MSTORE POP JUMP JUMPDEST PUSH32 0x696E76616C696420737461746500000000000000000000000000000000000000 PUSH1 0x0 DUP3 ADD MSTORE POP JUMP JUMPDEST PUSH1 0x4 DUP2 LT PUSH2 0xB90 JUMPI PUSH2 0xB8F PUSH2 0xA60 JUMP JUMPDEST JUMPDEST POP JUMP INVALID LOG2 PUSH5 0x6970667358 0x22 SLT KECCAK256 EQ SELFDESTRUCT 0xE0 SAR RETURN CALLDATASIZE MSTORE8 SWAP6 GASPRICE INVALID REVERT DUP5 LT PUSH1 0xEA 0xAB CODECOPY MSIZE SWAP9 MSTORE8 0xAE 0xD2 MLOAD 0x4A 0xC1 0x2F GAS 0xCF BALANCE 0x5F 0xDF GASLIMIT PUSH5 0x736F6C6343 STOP ADDMOD SMOD STOP CALLER "
				},
				"gasEstimates": {
					"creation": {
						"codeDepositCost": "603400",
						"executionCost": "infinite",
						"totalCost": "infinite"
					},
					"external": {
						"_getBalance()": "383",
						"abort()": "infinite",
						"confirmRecived()": "infinite",
						"confirnPurchase()": "infinite",
						"currentState()": "2611",
						"refundSeller()": "infinite",
						"value()": "2474"
					}
				},
				"methodIdentifiers": {
					"_getBalance()": "efff5e2f",
					"abort()": "35a063b4",
					"confirmRecived()": "f40da391",
					"confirnPurchase()": "e0e70bc4",
					"currentState()": "0c3f6acf",
					"refundSeller()": "c7981b1b",
					"value()": "3fa4f245"
				}
			},
			"storageLayout": {
				"storage": [
					{
						"astId": 3,
						"contract": "contracts_src/contracts/purchase.sol:Purchase",
						"label": "value",
						"offset": 0,
						"slot": "0",
						"type": "t_uint256"
					},
					{
						"astId": 5,
						"contract": "contracts_src/contracts/purchase.sol:Purchase",
						"label": "seller",
						"offset": 0,
						"slot": "1",
						"type": "t_address_payable"
					},
					{
						"astId": 7,
						"contract": "contracts_src/contracts/purchase.sol:Purchase",
						"label": "buyyer",
						"offset": 0,
						"slot": "2",
						"type": "t_address_payable"
					},
					{
						"astId": 15,
						"contract": "contracts_src/contracts/purchase.sol:Purchase",
						"label": "currentState",
						"offset": 20,
						"slot": "2",
						"type": "t_enum(states)12"
					}
				],
				"types": {
					"t_address_payable": {
						"encoding": "inplace",
						"label": "address payable",
						"numberOfBytes": "20"
					},
					"t_enum(states)12": {
						"encoding": "inplace",
						"label": "enum Purchase.states",
						"numberOfBytes": "1"
					},
					"t_uint256": {
						"encoding": "inplace",
						"label": "uint256",
						"numberOfBytes": "32"
					}
				}
			},
			"userdoc": {
				"kind": "user",
				"methods": {},
				"version": 1
			}
		}
	}
}